:10000000A9EF03F0000000008FEF03F000000000F4
:0A0010000000000000000000F3D71C
:0C001C00420E0D6E0D2EFED700001200EB
:100028001D0E0C6E910E0D6E0D2EFED70C2EFCD7EC
:020038001200B4
:0A003A0000000000000000001200AA
:10004400086A096A100E0C6E013408360936045029
:10005400085E0550D8A0053C095ED8B007D004500E
:1000640008260550D8B0053C0926D890003601363C
:060074000C2EEAD7120079
:10007A0000019DBF02D0839E01D0838E9DBD02D018
:10008A00839C01D0838C9DBB02D0839A01D0838A42
:10009A009DB902D0839801D0838881B102D083842C
:1000AA0001D083948386C4DF83969DB702D0839E52
:1000BA0001D0838E9DB502D0839C01D0838C9DB3E1
:1000CA0002D0839A01D0838A9DB102D0839801D04D
:1000DA00838881B102D0838401D083948386A8DF88
:0E00EA00839681A102D09BDF01D093DF12002C
:1000F800030E0C6E950E0D6E0D2EFED70C2EFCD732
:020108001200E3
:10010A00086A080E0C6E003408360450085ED8B02F
:0E011A0002D00826D89000360C2EF5D7120021
:0E0128000001819196C09DF0A4DF818112003C
:1001360000019A6B050E9A5D0AE29A519825E16EC6
:10014600000E9921E26E200EE66E9A2BF3D79A5195
:100156009825E16E000E9921E26EE66A9A079A5199
:1001660098259B6F000E99219C6F0A0E046E000E57
:10017600056E96C000F097C001F061DF08C000F080
:1001860009C001F0300E00269BC0E1FF9CC0E2FFD3
:1001960000C0E6FF0A0E046E000E056E96C000F063
:1001A60097C001F04CDF00C096F001C097F0000E3A
:1001B600011802E1000E001801E102D09A07CFD71C
:0201C600120025
:1001C80000019B6B98C001F0010E006E015004E025
:1001D80000360090FF0FFBD700C09CF096C0E9FFE7
:1001E80097C0EAFFEE5000160052010ED8A4000E88
:1001F800006E9A51001A18E09951000804E278DF5D
:1002080077DF9907F9D796C0E9FF97C0EAFF9C51B5
:10021800EE14006E0052010ED8A4000E006E9A5122
:0E022800001A02E0FF0E9B6F9BC000F0120058
:100236000001996B030E995D0AE299519725E16ECB
:10024600000E9821E26E200EE66E992BF3D7995197
:100256009725E16E000E9821E26EE66A990799519C
:1002660097259A6F000E98219B6F0A0E046E96C012
:1002760000F048DF08C000F0300E00269AC0E1FF0B
:100286009BC0E2FF00C0E6FF0A0E046E96C000F0B7
:1002960039DF00C096F00050000A01E102D099074C
:0402A600DED712008D
:1002AA00959695949598959A959C959E8396839400
:1002BA00839E839C839A8398B2DEB1DEB0DE838A02
:1002CA0083888386B5DE8396AADE8386B1DE83962B
:1002DA00A6DE8386ADDE8396A2DE83988386A8DEB9
:1002EA0083969DDE8386A4DE8396839A838E838695
:1002FA009FDE839694DE839E8388838699DE839627
:10030A008398838695DE83968ADE838691DE83963A
:10031A00838883868DDE839682DE8398838688DE51
:10032A008396838E838C838A8388838681DE8396F1
:08033A0076DE00018181120052
:100342000F0EC16EF00E936E838295929484CF6AE3
:10035200CE6AF26A9D6A9E6A050EBD6ECD6AC00EB5
:10036200F26E00018B9F8B977D6B8194776B786B1C
:100372009BDF0C0E9D6F80DE010E9D6F7DDE1200F5
:1003820010D0800E00018C6F1AD0C00E8C6F17D067
:10039200940E8C6F14D0D40E8C6F11D0800E8C6F93
:1003A2000ED000018C51010AECE08C51020AEDE002
:1003B2008C51030AEDE08C51040AEDE0EFD78D0574
:1003C200006E8C51002600C08CF000C09DF054DEFF
:1003D2008191906B90518E25E96E000E8F21EA6E0D
:1003E200EE520BE090518E25E96E000E8F21EA6EDF
:0E03F200EECF96F098DE902BEDD781811200B1
:100400000001916B926B8CC093F0000E8CBFFF0EBD
:10041000946F800E8C19006E800E000A005C0AE258
:10042000914B922B8C510008936F946B000E8CBFF4
:10043000FF0E945B93C096F08DC097F08EC098F03D
:10044000FADE040E8F6F000E906F000E006E90515A
:10045000005C02E18F51000819E28F518D25E16E99
:1004600090518E21E26E010E8F5D006E000E90594C
:10047000016E00508D25E96E01508E21EA6EEECF9F
:10048000E6FF010E8F5F000E905BDFD78DC0E1FFAE
:100490008EC0E2FF200EE66E915192111CE08F6B30
:1004A000906B8F518D25E96E90518E21EA6EEECFC3
:1004B00001F00150200A03E18F4B902BF2D7010E7F
:1004C0008F5F000E905B8F518D25E16E90518E21D4
:0804D000E26E2D0EE66E120033
:1004D8000900F5CFE6FF0006FBE10106F9E112008D
:1004E800810E0001966F0F0E976F070E986F010E21
:1004F800996F010E9A6F64DE005202E0010E7F6F61
:100508007F5310E0810E966F0F0E976F070E986F4E
:10051800010E996F9A6B54DE005204E07F6B010E56
:10052800006E1200810E966F0F0E976F060E986F71
:10053800010E996F010E9A6F43DE005202E0010E20
:100548007E6F7E5310E0810E966F0F0E976F060E2A
:10055800986F010E996F9A6B33DE005204E07E6B40
:10056800020E006E1200810E966F0F0E976F050E29
:10057800986F010E996F010E9A6F22DE005202E009
:10058800010E796F795310E0810E966F0F0E976FF9
:10059800050E986F010E996F9A6B12DE005204E0F7
:1005A800796B030E006E1200810E966F0F0E976F17
:1005B800040E986F010E996F010E9A6F01DE0052BA
:1005C80002E0010E6B6F6B5310E0810E966F0F0EF9
:1005D800976F040E986F010E996F9A6BF1DD0052B8
:0E05E80004E06B6B040E006E1200006A12003D
:1005F60000018BB710D09E949E907D6B8B9B8B9D3C
:10060600CF6ACE6ACD6A9D849D808B878CC000F0B0
:100616008DC001F012008BAD0BD08B977AC07CF0A9
:1006260080C07BF081847BC000F07CC001F01200AA
:0A0636008CC000F08DC001F012002E
:100640000001926B936B8CC094F08DC095F0800E7E
:100650008D19006E800E005C02E1000E8C5D0BE2D5
:10066000010E926F000E936F8C510008946F8DC035
:1006700095F0000E955794C096F095C097F08EC0F7
:1006800098F08FC099F057DD060E906F000E916FB5
:10069000000E006E9151005C02E19051000819E2D9
:1006A00090518E25E16E91518F21E26E010E905D89
:1006B000006E000E9159016E00508E25E96E0150BA
:1006C0008F21EA6EEECFE6FF010E905F000E915B88
:1006D000DFD78EC0E1FF8FC0E2FF200EE66E9251A1
:1006E00093111CE0906B916B90518E25E96E9151A6
:1006F0008F21EA6EEECF01F00150200A03E1904B0A
:10070000912BF2D7010E905F000E915B90518E25D8
:0E071000E16E91518F21E26E2D0EE66E120009
:10071E009EA412D000018BBB05D0CD8081867D6B4F
:10072E008B8B09D0BFCF7AF0BECF80F0CD909D9449
:10073E009D908B8D8B9B9E949EA003D000017D2B54
:04074E009E90110068
:100752000EEC05F0F5DDF80E8B17010E8C6F010E15
:100762008D6F150E8E6F000E8F6F0ADE800E6A6F10
:1007720045D077C08CF078C08DF0000E78BFFF0EA8
:100782008E6F8F6F37DF00C077F001C078F000C046
:100792008CF001C08DF0700E8E6F000E8F6F4FDFE8
:1007A2007AC096F06C0E976F000E986F43DD80C092
:1007B20096F0830E976F000E986F3CDD010E8C6FE2
:1007C200050E8D6F700E8E6F000E8F6FD9DD020ECB
:1007D2008C6F030E8D6F6C0E8E6F000E8F6FD0DDDF
:1007E200020E8C6F0B0E8D6F830E8E6F000E8F6F4D
:1007F200C7DD22D021D020D01FD01ED0070E8B15EE
:10080200016E0150000AB5E0070E8B15016E015012
:10081200010AF0E0070E8B15016E0150020AEBE0AF
:10082200070E8B15016E0150030AE6E0070E8B15C9
:10083200016E0150040AE1E056DE00C082F0B6D03B
:10084200010E9D6F19DC070E8B15006E002A8B516D
:10085200001A070E00168B51001A00C08BF07BD0D5
:10086200010E8C6F010E8D6F150E8E6F000E8F6F45
:1008720087DD97D0010E8C6F010E8D6F3F0E8E6F4C
:10088200000E8F6F7DDD6AC08CF0870E8D6F000EBB
:100892008E6FB5DD020E8C6F010E8D6F870E8E6F1F
:1008A200000E8F6F6DDD7DD0010E8C6F010E8D6F8E
:1008B200590E8E6F000E8F6F63DD020E8C6F030E6A
:1008C2008D6F4E0E8E6F000E8F6F5ADD6AD0010E45
:1008D2008C6F010E8D6F590E8E6F000E8F6F50DD73
:1008E200020E8C6F030E8D6F4E0E8E6F000E8F6F89
:1008F20047DD57D0010E8C6F010E8D6F2E0E8E6F5D
:10090200000E8F6F3DDD020E8C6F010E8D6F200E7B
:100912008E6F000E8F6F34DD44D0F80E8B17010EF0
:100922008C6F010E8D6F150E8E6F000E8F6F28DD8E
:10093200020E8C6F010E8D6F1D0E8E6F000E8F6F6B
:100942001FDD020E8C6F090E8D6F1A0E8E6F000E58
:100952008F6F16DD26D0070E8B15016E0150000A2F
:10096200D8B47ED7070E8B15016E0150010AD8B498
:1009720081D7070E8B15016E0150020A95E0070E12
:100982008B15016E0150030AA2E0070E8B15016E52
:100992000150040AAFE0070E8B15016E0150050AE3
:1009A200BCE00ED081960CD081940AD08251010A0B
:1009B200D8B446D78251020AF5E08251030AF4E024
:0409C200D7D6FFD7AE
:100A1C0010EE15F0550E006E010E016EC60EF66E40
:0E0A2C00090EF76E000EF86E6CEC02F0120070
:0509C6004361703A00DE
:0309CB004C3A00A3
:0309CE00483A00A4
:0E09D100456E76696172204461646F733F0069
:1009DF00436F6D756E696361E7E36F202D205043A0
:0109EF000007
:0F09F000446174613A2078782F78782F787800F6
:0B09FF002D3E78783A78783A7878003E
:100A0A00566F6C756D653A78782C787878206D6CAD
:010A1A0000DB
:020000040030CA
:0E000000000E1F1EFF8381FF0FC00FE00F4098
:00000001FF
