:02000000D22804
:10000600831203132230DC00D801D901DA01DB01A7
:10001600DC03031939280310DB0CDA0CD90CD80CD5
:10002600D30CD20CD10CD00C031C0B28DC03031907
:100036002B285408D80755080318550FD907560812
:100046000318560FDA0757080318570FDB070F2850
:100056005408D80755080318550FD907560803182A
:0E006600560FDA0757080318570FDB0708007C
:0C00740007308312DD00DD0B3D28080082
:10008000C33083129F05F0309F05F03083169F0424
:1000900083129F172C08D000D00D5010D00D501097
:1000A00050089F041F143A209F149F1C59280000D9
:1000B00055281F101E08D100D00183161E08D00439
:0600C0000030D10408002D
:1000C600E8308312AE000330AF00B001B101E83072
:1000D600D0000330D1000030D2000030D3002C080D
:1000E600D4002D08D500D601D70103205008AE0054
:1000F6005108AF005208B0005308B1000030530257
:10010600031D8F2800305202031D8F280230510232
:10011600031D8F28B230500203189228D128B2301E
:10012600D0000230D100D201D3015008AE025108EE
:10013600031C510FAF025208031C520FB0025308A2
:10014600031C530FB1020530D00050080319B22822
:10015600B10CB00CAF0CAE0CB113FF3EA9282E08A3
:10016600D0002F08D1003008D2003108D30001306A
:10017600AE02031CAF02031CB002031CB1025008FE
:100186005104520453040319D12800000000000052
:0E01960000000000000000000000B228080079
:1001A4008312850101308316850001309F000730DA
:1001B400831299003230A1000030A2000A30A80056
:1001C4000030A900B830AA000B30AB000630DB00C9
:1001D4001330DC00AD30DD008312DD0BEE28DC0BC8
:1001E400EE28DB0BEE280000000085140630DB004F
:1001F4001330DC00AD30DD00DD0BFE28DC0BFE2807
:10020400DB0BFE280000000005150630DB00133070
:10021400DC00AD30DD00DD0B0D29DC0B0D29DB0B23
:100224000D290000000005160630DB001330DC0049
:10023400AD30DD00DD0B1C29DC0B1C29DB0B1C297C
:100244000000000085160B30DB002630DC005D303A
:10025400DD00DD0B2B29DC0B2B29DB0B2B2900000C
:10026400000085100511051285120630DB001330DD
:10027400DC00AD30DD00DD0B3D29DC0B3D29DB0B63
:100284003D29000000008514051505168516AC01EE
:1002940040205008A3005108A40001305102031D5E
:1002A4005529B5305002031C67293230A1000030B3
:1002B400A2006430A8000030A900B830AA000B30B6
:1002C400AB000130A500A001BE2901302402031DAA
:1002D4006D29B1302302031C7F293230A100003084
:1002E400A2006430A8000030A900E830AA0003305E
:1002F400AB000130A500A001BE2901302402031D7A
:100304008529AD302302031C97293230A100003027
:10031400A2006430A8000030A900EE30AA00023028
:10032400AB00A5010130A000BE2901302402031D49
:100334009D29A9302302031CAF293230A1000030CB
:10034400A2006430A8000030A9005830AA0002308E
:10035400AB00A5010130A000BE293230A10000305D
:10036400A2006430A8000030A9006430AA00003064
:10037400AB00A5010130A0002018C3298312851009
:10038400C529831285142018C9290511CA29051500
:100394002018CE290512CF2905162018D329851235
:1003A400D42985162108AC002208AD0063208312ED
:1003B4002518DE298510DF2985142518E329051160
:1003C400E42905152518E8290512E9290516251833
:1003D400ED298512EE2985162808AC002908AD0000
:1003E400632083122018F8298510F9298514201810
:1003F400FD290511FE2905152018022A0512032AD4
:1004040005162018072A8512082A85162108AC002B
:100414002208AD00632083122518122A8510132A9E
:1004240085142518172A0511182A051525181C2ABC
:1004340005121D2A05162518212A8512222A851639
:0E0444002A08AC002B08AD0063204929282AA5
:02400E00D431AB
:00000001FF
