:02000000E228F4
:10000600831203132230DC00D801D901DA01DB01A7
:10001600DC03031939280310DB0CDA0CD90CD80CD5
:10002600D30CD20CD10CD00C031C0B28DC03031907
:100036002B285408D80755080318550FD907560812
:100046000318560FDA0757080318570FDB070F2850
:100056005408D80755080318550FD907560803182A
:0E006600560FDA0757080318570FDB0708007C
:0C00740007308312DD00DD0B3D28080082
:10008000C33083129F05F0309F05F03083169F0424
:1000900083129F172C08D000D00D5010D00D501097
:1000A00050089F041F143A209F149F1C59280000D9
:1000B00055281F101E08D100D00183161E08D00439
:0600C0000030D10408002D
:1000C60006308312DB001330DC00AD30DD00DD0BC3
:1000D6006A28DC0B6A28DB0B6A280000000008008F
:1000E600E8308312AE000330AF00B001B101E83052
:1000F600D0000330D1000030D2000030D3002C08ED
:10010600D4002D08D500D601D70103205008AE0033
:100116005108AF005208B0005308B1000030530236
:10012600031D9F2800305202031D9F2802305102F2
:10013600031D9F28B23050020318A228E128B230CE
:10014600D0000230D100D201D3015008AE025108CE
:10015600031C510FAF025208031C520FB002530882
:10016600031C530FB1020530D00050080319C228F2
:10017600B10CB00CAF0CAE0CB113FF3EB9282E0873
:10018600D0002F08D1003008D2003108D30001304A
:10019600AE02031CAF02031CB002031CB1025008DE
:1001A6005104520453040319E12800000000000022
:0E01B60000000000000000000000C228080049
:1001C4008312850101308316850001309F000730BA
:1001D400831299003230A2000030A3000A30A40038
:1001E4000030A500B830A6000B30A70063208514AA
:1001F400632005156320051663208516632063209C
:100204008510051105128512632085140515051640
:100214008516AC0140205008A8005108A9000130FF
:100224005102031D1729A6305002031C282932301D
:10023400A2000030A300C830A400A501B830A60075
:100244000B30A7000130AA00AB01C62901302902F6
:10025400031D2E299F302802031C3F293230A2009F
:100264000030A3009630A400A501DC30A6000530C0
:10027400A7000130AA00AB01C62901302902031DE1
:1002840045299C302802031C57293230A200003033
:10029400A3007D30A4000030A500E830A6000330A0
:1002A400A700AA010130AB00C62901302902031DB1
:1002B4005D2998302802031C6F293230A2000030D7
:1002C400A3006430A4000030A5005230A60003301F
:1002D400A700AA010130AB00C62901302902031D81
:1002E400752995302802031C87293230A20000307A
:1002F400A3006430A4000030A500BC30A600023086
:10030400A700AA010130AB00C62901302902031D50
:100314008D2992302802031C9F293230A20000301C
:10032400A3006430A4000030A5008A30A600023087
:10033400A700AA010130AB00C62901302902031D20
:10034400A5298E302802031CB7293230A2000030C0
:10035400A3006430A4000030A500F430A6000130EE
:10036400A700AA010130AB00C6293230A200003038
:10037400A3006430A4000030A5006430A60000305F
:10038400A700AA010130AB002B18CB2983128510DA
:10039400CD29831285142B18D1290511D2290515CD
:1003A4002B18D6290512D72905162B18DB298512F7
:1003B400DC2985162208AC002308AD0073208312C3
:1003C4002A18E6298510E72985142A18EB2905112E
:1003D400EC2905152A18F0290512F12905162A1801
:1003E400F5298512F62985162408AC002508AD00E8
:1003F400732083122B18002A8510012A85142B18C8
:10040400052A0511062A05152B180A2A05120B2A96
:1004140005162B180F2A8512102A85162208AC00FF
:100424002308AD00732083122A181A2A85101B2A68
:1004340085142A181F2A0511202A05152A18242A8A
:100444000512252A05162A18292A85122A2A85160C
:0E0454002608AC002708AD0073200B29302AC3
:02400E00D431AB
:00000001FF
