:020000009F2837
:10000800DF00030E8301A5000A08A6008A010B1D64
:100018000E280B110B1C1A2883120B100030051A1E
:100028000130A400003085190130A20026088A009A
:0A003800250E8300DF0E5F0E0900A5
:1000420083120313D801D9011030DC00510DD80DF1
:10005200D90D5408D8025508031C550FD9020318AC
:1000620039285408D80755080318550FD907031023
:0A007200D00DD10DDC0B272808008B
:10007C0083120313DB01DA01D9018030D800D10CD3
:10008C00D00C031C52285408D90755080318550FD7
:10009C00DA070318DB0A0310D01F5A285408DA07B2
:1000AC0055080318550FDB07DB0CDA0CD90CD80CF0
:1000BC00031C45285B08D3005A08D2005908D1000C
:0600CC005808D0000800F6
:0C00D200831221088A0020088200080028
:1000DE00831201082307D000D1010318D10ACE30B4
:1000EE00D4007F30D5003E200330D0070318D10A4C
:1000FE00ED30D4007F30D50021205808D0005908AB
:10010E00D1003108D4003208D50021205808D00083
:08011E005908D100D00A0800C5
:1001260069208A110A128000840AA00A0319A10A0A
:08013600D003031D932808000B
:10013E0001308312A900AA010130AB000430AC00DB
:10014E000530AD002230AE002330AF002630B000B7
:10015E0085011830831685003830900018309600CF
:10016E00E8308B00811201128111011181100110F2
:10017E002408003A031D0729A7010230270203189D
:10018E00E8280630B1000030B2002908B300B401EF
:10019E006F2050082A3E84000008D0005008A800A6
:1001AE00500885000330DB000830DC007730DD00BE
:1001BE00DD0BDF28DC0BDF28DB0BDF288501A70A30
:1001CE00C4280630B1000030B2002908B300B401D3
:1001DE006F2050082A3E84000008D0005008A80066
:1001EE00500885000D30DB00AF30DC00B630DD008E
:1001FE00DD0BFF28DC0BFF28DB0BFF280000850141
:10020E002208003A031D1D29831228088500063096
:10021E00DB001330DC00AD30DD00DD0B1429DC0B10
:10022E001429DB0B1429000000008501A30A230802
:0E023E00073A031D24290130A300BF282529FB
:02400E00D431AB
:00000001FF
