:1000000048EF05F00000000000EF00F000000000E5
:0A0010000000000000000000F3D71C
:10001C000F0E0C6E470E0D6E0D2EFED70C2EFCD750
:06002C00000000001200BC
:0A003200210E0D6E0D2EFED71200F8
:06003C00000000001200AC
:10004200000186BF02D0829601D0828686BD02D090
:10005200829401D0828486BB02D0829201D08282B5
:1000620086B902D0829001D0828059B002D08288B3
:1000720001D08298828AE1DF829A86B702D0829684
:1000820001D0828686B502D0829401D0828486B362
:1000920002D0829201D0828286B102D0829001D0B7
:1000A200828059B002D0828801D08298828AC5DFCC
:0E00B200829A59A002D0B1DF01D0BADF12004D
:1000C00088C003F089C004F08AC005F08BC006F038
:1000D00000018CA72CD003C002F00232029E023233
:1000E000029E0232029E050E016E04C000F0015015
:1000F00004E000360090FF0FFBD786C0E1FF87C009
:10010000E2FF00500210E66E864B872B050E016E53
:1001100003C000F0015004E000360090FF0FFBD751
:1001200086C0E1FF87C0E2FF00C0E6FF43D0050EB6
:10013000006E05C002F0005004E00232029EFF0F84
:10014000FBD7000106C000F000360090003600909A
:100150000036009086C0E1FF87C0E2FF0050021029
:10016000E66E864B872B05C000F000360090003607
:10017000009000360090E00E0016080E0010016E90
:10018000030E0514006E86C0E1FF87C0E2FF005039
:100190000110E66E864B872B86C0E1FF87C0E2FF29
:1001A00004C0E6FF864B872B86C0E1FF87C0E2FFD5
:0601B00003C0E6FF12008F
:1001B60066D0000E0001866F0F0E876F80C088F034
:1001C60081C089F082C08AF083C08BF084C08CF035
:1001D60074DF66D0040E0001866F0F0E876F80C035
:1001E60088F081C089F082C08AF083C08BF084C019
:1001F6008CF063DF55D0080E0001866F0F0E876FF7
:1002060080C088F081C089F082C08AF083C08BF0FC
:1002160084C08CF052DF44D00C0E0001866F0F0EA6
:10022600876F80C088F081C089F082C08AF083C061
:100236008BF084C08CF041DF33D0100E0001866F46
:100246000F0E876F80C088F081C089F082C08AF067
:1002560083C08BF084C08CF030DF22D0140E0001F6
:10026600866F0F0E876F80C088F081C089F082C0CC
:100276008AF083C08BF084C08CF01FDF11D00001A0
:100286007F51000A96E07F51010AA4E07F51020ADD
:10029600B2E07F51030AC0E07F51040ACEE0DED708
:0202A600120044
:0C02A80059907FC086F0C9DE598012001A
:1002B4000001826B836B846B856B81A749D07FC0FF
:1002C400E9FF80C0EAFFEECF02F0050E006E02C027
:1002D40082F0000E836F846F856F005004E08233D8
:1002E400829FFF0FFBD782C083F0826B846B856B88
:1002F40002C000F0003600900036009000360090F6
:10030400000E846F856F00508213000E8313000E5D
:1003140083BFFF0E846F856F000E846F856F7F4BE4
:10032400802B7FC0E9FF80C0EAFFEECF02F0050E0C
:10033400016E02C000F0015004E00032009EFF0F85
:10034400FBD700508213000E83138413851372D0DD
:100354007FC0E9FF80C0EAFFEECF01F0050E006E1A
:1003640001C004F0005004E004360490FF0FFBD7F2
:100374007FC0E9FF80C0EAFFEECF01F0030E006EFC
:1003840001C082F0000E836F846F856F005004E01B
:100394008233829FFF0FFBD782C083F0826B846B12
:1003A400856B000E846F856F7F4B802B7FC0E9FFC8
:1003B40080C0EAFFEECF00F0030E0014036EE00EDF
:1003C4000014026E02C000F00032009E0032009E53
:1003D4000032009E03500012045000120050821399
:1003E400000E83138413851384C085F083C084F0C6
:1003F40082C083F0826B7F4B802B7FC0D9FF80C08B
:10040400DAFFDE508213000E83138413851384C035
:1004140085F083C084F082C083F0826B7F4B802B95
:100424007FC0D9FF80C0DAFFDE508213000E831331
:100434008413851382C000F083C001F084C002F0ED
:0604440085C003F0120068
:10044A0000017F51000A10E1180E866F0F0E876FA8
:10045A0080C088F081C089F082C08AF083C08BF0A6
:10046A0084C08CF028DE10D01C0E0001866F0F0E9F
:10047A00876F80C088F081C089F082C08AF083C00B
:0A048A008BF084C08CF017DE120026
:10049400086A080E0C6E003408360450085ED8B0A2
:0E04A40002D00826D89000360C2EF5D7120094
:1004B200000180530AE07FC06FFFE00E6E14016EF0
:1004C20001507F1901E0F9D702D07FC06FFF1200FF
:1004D20000017F078007810782078307060E006EEF
:1004E2007FC070FF005004E070367090FF0FFBD7A2
:1004F2008051701281C071FF7136719071367190A6
:10050200713671908351711284B501D0718C84A1BE
:1005120001D0718E82C072FF84A301D0728C12004E
:1005220093949386800E00017F6FFF0E806FC0DF71
:1005320072C07FF073C080F074C081F075C082F029
:1005420076C083F077C084F0C3DF600E7715606EEB
:10055200100E7715016E0150100A01E1608460CF20
:1005620050FF7F6B806B816B826B836BF70E846FA6
:100572006BDF010E00017F6F806B816B826B836B7F
:10058200F70E846F61DF600E00017715006E9F0E1B
:100592000010016E0FD0F70E786FF70E796F11D041
:1005A200FF0E786FFF0E796F0CD0FF0E786FF70E8B
:1005B200796F07D00150DF0AEEE00150BF0AF0E088
:1005C200F4D77F6B806B816B826B836B78C084F016
:1005D200F1DD010E00017F6F806B816B826B836B9B
:1005E20078C084F0E7DD020E00017F6F806B816BC3
:1005F200826B836B79C084F0DDDD030E00017F6FB7
:10060200806B816B826B836B79C084F0D3DD040EC7
:1006120000017F6F806B816B826B836B79C084F08A
:10062200C9DD050E00017F6F806B816B826B836B6E
:1006320079C084F0BFDD00017F6BFF0E806F38DF71
:020642001200A4
:100644000001756B030E755D0AE275517325E16E49
:10065400000E7421E26E200EE66E752BF3D77551F1
:100664007325E16E000E7421E26EE66A750775511A
:100674007325766F000E7421776F0A0E046E72C0B4
:1006840000F006DF08C000F0300E002676C0E1FF5F
:1006940077C0E2FF00C0E6FF0A0E046E72C000F0ED
:1006A400F7DE00C072F00050000A01E102D07507C5
:0406B400DED712007B
:1006B8000900F5CFE6FF0006FBE10106F9E11200AB
:1006C80010D0800E0001726F1AD0C00E726F17D052
:1006D800940E726F14D0D40E726F11D0800E726F98
:1006E8000ED000017251010AECE07251020AEDE0ED
:1006F8007251030AEDE07251040AEDE0EFD7730579
:10070800006E7251002600C072F000C086F095DCC1
:100718005990766B76517425E96E000E7521EA6E54
:10072800EE520BE076517425E96E000E7521EA6EE3
:0E073800EECF7FF0B5DD762BEDD759801200A5
:100746000F0140B704D0F10E6F166F860FD030B789
:1007560005D0F10E6F16060E6F1208D020B704D022
:10076600F10E6F166F8402D0006A1200030E0001AC
:100776007915606E79B710D0610E866F0F0E876F90
:1007860072C088F073C089F074C08AF075C08BF0AF
:10079600F70E8C6F92DC10D0610E0001866F0F0E83
:1007A600876F72C088F073C089F074C08AF075C014
:1007B6008BF0FF0E8C6F81DC78C065FF000179BD80
:1007C60001D0658C660E7B6F0F0E7C6F7A6B78514D
:1007D6007A5D10E27A517B25E16E000E7C21E26E95
:1007E6007A517625E96E000E7721EA6EEECFE6FFA6
:1007F6007A2BEDD76086F10E6F16FF0E006E120093
:1008060078C0E1FF79C0E2FFE66A60AE2CD0F10E57
:100816006F16FF0E00017B6FA49074AE0AD078C0ED
:10082600E9FF79C0EAFF78C0E1FF79C0E2FFE6861A
:10083600749E60A417D0070E6014006E78C0E9FF9E
:1008460079C0EAFF78C0E1FF79C0E2FF0050EE12FE
:1008560078C0E9FF79C0EAFF78C0E1FF79C0E2FF1E
:10086600010EEE1637D00F0150AF32D0F10E6F16D3
:100876000A0E6F1200017B6BA49274AC0AD078C08A
:10088600E9FF79C0EAFF78C0E1FF79C0E2FFE686BA
:10089600749C070E0F015015006E78C0E9FF79C0F1
:1008A600EAFF78C0E1FF79C0E2FF0050EE1278C09F
:1008B600E9FF79C0EAFF020EEE5C09E278C0E9FFC3
:1008C60079C0EAFF78C0E1FF79C0E2FFE68E02D088
:1008D600006A12000F0E6514006E00C07CF076C030
:1008E600E1FF77C0E2FF00C0E6FF65AC09D078C043
:1008F600E9FF79C0EAFF78C0E1FF79C0E2FFE68C44
:1009060062A61ED078C0E9FF79C0EAFF78C0E1FF91
:1009160079C0E2FFE68A610E00017F6F0F0E806FDD
:10092600F70E816FC4DC72C0E1FF73C0E2FF00C046
:10093600E6FF01C0E6FF02C0E6FF03C0E6FF14D0F3
:100946000001610E7F6F0F0E806FFF0E816FAFDCAF
:1009560072C0E1FF73C0E2FF00C0E6FF01C0E6FF20
:1009660002C0E6FF03C0E6FF7A6B660E7D6F0F0ED0
:100976007E6F7C517A5D10E27A517425E16E000E2D
:100986007521E26E7A517D25E96E000E7E21EA6EB2
:10099600EECFE6FF7A2BEDD7F10E6F16A4AE0AD096
:1009A60078C0E9FF79C0EAFF78C0E1FF79C0E2FFCD
:1009B600E688A49E7B5302E0609E02D00F01509F02
:0609C600FF0E006E12009E
:1009CC00949A94989490949294949496829A8298EF
:1009DC0082968294829282900EEC00F00EEC00F0E3
:1009EC000EEC00F082828280828A1EEC00F0829AE9
:1009FC000EEC00F0828A1EEC00F0829A0EEC00F0F5
:100A0C00828A1EEC00F0829A0EEC00F08290828AB0
:100A1C001EEC00F0829A0EEC00F0828A1EEC00F0C4
:100A2C00829A82928286828A1EEC00F0829A0EEC66
:100A3C0000F082968280828A1EEC00F0829A82906C
:100A4C00828A1EEC00F0829A0EEC00F0828A1EEC78
:100A5C0000F0829A8280828A1EEC00F0829A0EEC60
:100A6C0000F08290828A1EEC00F0829A8286828448
:100A7C0082828280828A1EEC00F0829A0EEC00F058
:040A8C00598012007B
:100A900094EC06F0946A080E936E730ED36EFF0EFC
:100AA00000016E6FFF0E6F6F706F716FF40E626FEB
:100AB000656B010E726F010E736F060E746F070E79
:100AC000756F060E766FD30E776F2BDD800E7F6FFE
:100AD000FF0E806FEEDC7F6B6EC080F06FC081F028
:100AE00070C082F071C083F0F70E846FAEDC010E2F
:100AF00000017F6F6EC080F06FC081F070C082F027
:100B000071C083F0F70E846FA0DC050E00017F6FCB
:100B1000E80E806F030E816F000E826F000E836FF0
:100B2000F70E846FDBEC00F0040E00017F6FD00E37
:100B3000806F070E816F000E826F000E836FF70EBD
:100B4000846FDBEC00F000017F6BFF0E806FB1DC87
:100B50003DDF010E866F21EC00F00C0E866F21EC5C
:100B600000F0010E726F010E736F480E746F000E6D
:100B7000756FAADD020E726F010E736F370E746F00
:100B8000000E756FA1DD150E0B6E4B0E0C6EBE0EBA
:100B90000D6E0D2EFED70C2EFCD70B2EFAD70000B3
:100BA000010E866F21EC00F0010E726F010E736F63
:100BB000150E746F000E756F87DD020E726F010ED9
:100BC000736F260E746F000E756F7EDD540E5A6EB5
:100BD000E90E726F030E736F000E746F000E756F67
:100BE0005A0E766F000E776F010E786F62C079F043
:100BF000AADD0001636B6A0E726F000E736F5A0EEE
:100C0000746F000E756F640E766F000E776F650E51
:100C1000786F000E796FF7DD00C063F000B002D08E
:100C20008B9C01D08B8C00016D51000A08E16C5146
:100C3000000A05E16B51030A02E16A51E80A12E178
:100C4000635310E05AC072F0660E736F000E746F3B
:100C5000F9DC010E726F090E736F660E746F000E71
:100C6000756F32DD060E0B6E130E0C6EAD0E0D6E33
:100C70000D2EFED70C2EFCD70B2EFAD7000000004D
:100C8000D10E726F070E736F000E746F000E756FCA
:100C90005A0E766F000E776F010E786F62C079F092
:100CA00052DD00016D51000A08E16C51000A05E1B6
:100CB0006B51070A02E16A51D00A12E1635310E056
:100CC0005AC072F0660E736F000E746FBBDC020EBA
:100CD000726F090E736F660E746F000E756FF4DC21
:040CE00075D7FFD7EE
:100D280010EE15F0440E006E010E016EE40EF66E24
:0E0D38000C0EF76E000EF86E5CEC03F012006D
:100CE40054656D70313A20202020202020206F434D
:010CF40000FF
:100CF50054656D70323A20202020202020206F433B
:010D050000ED
:100D0600204E6F203D20506963446973706C617991
:010D160000DC
:100D170041756C612043414E42555320323031308A
:010D270000CB
:020000040030CA
:0D000100081F1EFF8281FF0FC00FE00F409F
:00000001FF
