:100000004A0E040000000000000000000000000094
:1000100000000000000000000000000000000000E0
:10002000000000000000000000000000CE0D0000F5
:10003000000000000000000000000000900D000023
:1000400000000000000000000000000000000000B0
:1000500000000000000000000000000000000000A0
:100060000000000000000000000000000000000090
:100070000000000000000000000000000000000080
:100080000C0E000000000000000000000000000056
:100090000000000000000000000000000000000060
:1000A0000000000000000000000000000000000050
:1000B00000000000461100000000000000000000E9
:1000C0000000000000000000000000000000000030
:1000D0000000000000000000000000000000000020
:1000E0000000000000000000000000000000000010
:1000F0000000000000000000000000000000000000
:101C94008F862000F0FF230020A0B7000000200062
:101CA40034A0B700400020004420B7008A1F780009
:101CB4008B1F78008C1F78008D1F780041FE070071
:101CC40072FF07007DFE070003FF0700C502A8009E
:101CD400C80C2000873927000E20ED00FEFF3A00D3
:101CE4001020ED00FCFF3A00C502A900E00020002E
:101CF400D041880011002000A0832000108810002B
:101D0400D04180006100E10002003A00E0002000C0
:101D1400D0418800DA41800034FF0700C502A900E1
:101D24004A002000A6FD0700E04188003A00200098
:101D3400A3FD0700004288002A002000A0FD070040
:101D4400F04188001A0020009DFD070090418800A2
:101D54008A0020009AFD0700804188007A00200054
:101D640097FD0700A04188006A00200094FD070049
:101D7400C04188005A00200091FD0700B04188004E
:101D84001420EF008EFD0700404188009A002000D7
:101D94008BFD070080408800BA00200088FD070002
:101DA40070408800AA00200085FD0700904088004C
:101DB400408120000008EB00CB62AF001008E8006F
:101DC400808020000008EB00CA82AF001008E80001
:101DD400A08020000008EB00C342AF001008E80018
:101DE400C08020000008EB00C2E2AF001008E80049
:101DF400008220000008EB00CAE2AF001008E800EF
:101E04000020EF00104188000020EF0030418800DE
:101E14000020EF00204188000020EF00C04088002F
:101E24000020EF00B04088000020EF00D040880080
:101E34000020EF00F04088000020EF00E040880020
:101E44000020EF00104288000020EF00804288004C
:101E54000020EF00704288000020EF0090428800CC
:101E64000020EF00B04288000020EF00A04288006C
:101E74000020EF00304288000020EF00204288005C
:101E84000020EF00404288000020EF0060428800FC
:101E94000020EF00504288000020EF00C04288007C
:101EA400C18520001083200090487800D18520004F
:101EB4000083200090487800E185200050832000B2
:101EC40090487800F18520004083200090487800F5
:101ED400018620009083200090487800118620001D
:101EE40080832000904878002186200070832000A1
:101EF4009048780031862000608320009048780064
:101F04008D002000CC8520008ABB20000B0020001F
:101F14002E08F8002FFD07002F00B100C185200016
:101F2400D083200090487800D1852000C083200011
:101F340090487800E18520001084200090487800C3
:101F4400F18520000084200090487800018620005C
:101F5400F08320009048780011862000E083200060
:101F64009048780021862000308320009048780033
:101F74003186200020832000904878008D002000C6
:101F8400CC8520002ABC20000B0020002E08F8007D
:101F940010FD07002F00B100C185200090822000B1
:101FA40090487800D18520008082200090487800F5
:101FB400E18520001081200090487800F185200000
:101FC400008120009048780001862000F0802000E5
:101FD4009048780011862000E08020009048780026
:101FE400218620003081200090487800318620002E
:101FF40020812000904878008D002000CC852000AE
:102004006ABD20000B0020002E08F800F1FC070038
:102014002F00B100C1852000508120009048780035
:10202400D18520004081200090487800E18520007F
:10203400B085200090487800F1852000A08520001C
:10204400904878000186200050862000904878004F
:1020540011862000408620009048780021862000C8
:102064007086200090487800318620006086200029
:10207400904878008D002000CC8520000ABE200006
:102084000B0020002E08F800D2FC07002F00B1003E
:10209400C18520009080200090487800D1852000E0
:1020A4008080200090487800E1852000B0802000E6
:1020B40090487800F1852000A080200090487800A6
:1020C400018620006042800080487800118620004C
:1020D40050428000804878002186200090852000AE
:1020E4009048780031862000808520009048780050
:1020F4008D002000CC852000AABE20000B0020000B
:102104002E08F800B3FC07002F00B100C1852000A1
:102114003082200090487800D18520002082200061
:1021240090487800E1852000708220009048780073
:10213400F18520006082200090487800018620000C
:1021440050822000904878001186200040822000B0
:1021540090487800218620009081200090487800E3
:102164003186200080812000904878008D00200076
:10217400CC8520004ABF20000B0020002E08F80068
:1021840094FC07002F00B100C1852000B0408000FE
:1021940080487800D1852000D040800080487800B5
:1021A400E1852000F081200090487800F18520002E
:1021B400E08120009048780001862000D081200032
:1021C4009048780011862000C08120009048780053
:1021D400218620001042800080487800318620004B
:1021E40080428000804878008D002000CC8520004B
:1021F400EABF20000B0020002E08F80075FC070041
:102204002F00B100C1852000704280008048780012
:10221400D18520009042800080487800E18520002C
:10222400B042800080487800F1852000508520006D
:10223400904878000186200040852000904878006E
:1022440011862000304280008048780021862000DA
:10225400204280008048780031862000404280007F
:10226400804878008D002000CC8520008AC02000A2
:102274000B0020002E08F80056FC07002F00B100C8
:082284009CFE3700FFFF37004C
:1015C8008A1F78008B1F78008C1F7800000021008C
:1015D8002CA3B700C002A800C022A800C802A80017
:1015E800C822A800C842A800C862A800D002A80063
:1015F800D022A800D042A800C9E2A800C9C2A80009
:10160800C9A2A800C962A800C982A800C942A80046
:10161800D122A800C882A800C142A800C8E2A80038
:10162800C0E2A800C102A900C122A900D0E2A90015
:10163800D102A800D062A900D082A800C922A800BF
:10164800C902A900C082A800D0A2A900D0C2A900DE
:10165800FEFE07006CC0B3001BC0B300CAC0B300D5
:10166800F3FE07007CC0B3001BC0B300AAC0B300E0
:10167800EFFE07008CC0B3001BC0B3009AC1B300D3
:10168800EBFE07000CC1B3001620EF007AC1B300CF
:10169800E7FE07008CC1B3001BC0B3008AC1B300CA
:1016A800E3FE070054FB07004F067800CF057800DB
:0816B8004F0578000000060058
:101254000000FA00217420006204200073052000BD
:10126400824878008348780042C7A9000080FA00C9
:041274000000060070
:101238000000FA008D1F78001D002000F4FC070054
:0C124800CF0678000080FA0000000600CD
:100618000000FA007954E100020036000020EF00E3
:10062800C9013700605CE10089003A001A00E20065
:1006380001003200050307004E003700006C20005F
:100648000C4878007F003700106C20000C487800B8
:100658007C003700206C20000C48780079003700B7
:10066800306C20000C48780076003700406C200081
:100678000C48780073003700506C20000C48780054
:1006880070003700606C20000C4878006D0037005F
:10069800706C20000C4878006A003700806C2000DD
:1006A8000C48780067003700906C20000C487800F0
:1006B80064003700A06C20000C4878006100370007
:1006C800B06C20000C4878005E003700C06C200039
:1006D8000C4878005B003700D06C20000C4878008C
:1006E80058003700E06C20000C48780055003700AF
:1006F800F06C20000C48780052003700006D200094
:100708000C4878004F003700106D20000C48780026
:100718004C003700206D20000C4878004900370055
:10072800306D20000C48780046003700406D2000EE
:100738000C48780043003700506D20000C487800C2
:1007480040003700606D20000C4878003D003700FD
:10075800706D20000C4878003A003700806D20004A
:100768000C48780037003700906D20000C4878005E
:10077800340037006054E100B0FF32006154E100FA
:10078800B1FF32006254E100B2FF32006354E1006D
:10079800B3FF32006454E100B4FF32006554E10055
:1007A800B5FF32006654E100B6FF32006754E1003D
:1007B800B7FF32006854E100B8FF32006954E10025
:1007C800B9FF32006A54E100BAFF32006B54E1000D
:1007D800BBFF32006C54E100BCFF32006D54E100F5
:1007E800BDFF32006E54E100BEFF32006F54E100DD
:1007F800BFFF32007054E100C0FF32007154E100C5
:10080800C1FF32007254E100C2FF32007354E100AC
:10081800C3FF32007454E100C4FF32007554E10094
:10082800C5FF32007654E100C6FF32007754E1007C
:10083800C7FF32007854E100C8FF32007954E10064
:10084800C9FF32001A00E20001003200EAFE070088
:10085800615CE10084003A001A00E2000100320005
:100868007A0207004B003700106820000A48780019
:100878007A003700206820000A487800770037009F
:10088800606820000A48780074003700706820000B
:100898000A48780071003700806820000A4878000C
:1008A8006E003700906820000A4878006B00370017
:1008B800E06820000A48780068003700F0682000E7
:1008C8000A48780065003700406920000A48780027
:1008D80062003700506920000A4878005F0037003E
:1008E800606920000A4878005C003700406A2000F0
:1008F8000A48780059003700506A20000A487800F2
:1009080056003700606A20000A4878005300370014
:10091800706A20000A48780050003700806A20007A
:100928000A4878004D003700906A20000A4878008D
:100938004A003700A06A20000A48780047003700BC
:10094800C06A20000A48780044003700D06A2000B6
:100958000A48780041003700E06A20000A48780019
:100968003E003700006B20000A4878003B00370043
:10097800106B20000A48780038003700206B2000F0
:100988000A48780035003700406B20000A48780094
:10099800320037006064E100B3FF32006164E100B7
:1009A800B4FF32006264E100B5FF32006364E10025
:1009B800B6FF32006464E100B7FF32006564E1000D
:1009C800B8FF32006664E100B9FF32006764E100F5
:1009D800BAFF32006864E100BBFF32006964E100DD
:1009E800BCFF32006A64E100BDFF32006B64E100C5
:1009F800BEFF32006C64E100BFFF32006D64E100AD
:100A0800C0FF32006E64E100C1FF32006F64E10094
:100A1800C2FF32007064E100C3FF32007164E1007C
:100A2800C4FF32007264E100C5FF32007364E10064
:100A3800C6FF32007464E100C7FF32007564E1004C
:100A4800C8FF32007664E100C9FF32007764E10034
:100A5800CAFF32007864E100CBFF32001A00E200DE
:100A68000100320064FE0700820037001600AE0065
:100A7800C802A9001600AF00C802A800B1003700DC
:100A88001600AE00C822A9001600AF00C822A800B0
:100A9800AC0037001600AE00C842A9001600AF002F
:100AA800C842A800A70037001600AE00C862A90017
:100AB8001600AF00C862A800A20037001600AE00FA
:100AC800C882A9001600AF00C882A8009D003700A0
:100AD8001600AE00C8A2A9001600AF00C8A2A80060
:100AE800980037001600AE00C8C2A9001600AF0073
:100AF800C8C2A800930037001600AE00C8E2A900DB
:100B08001600AF00C8E2A8008E0037001600AE003D
:100B1800C902A9001600AF00C902A8008900370061
:100B28001600AE00C922A9001600AF00C922A8000D
:100B3800840037001600AE00C942A9001600AF00B5
:100B4800C942A8007F0037001600AE00C962A9009C
:100B58001600AF00C962A8007A0037001600AE0080
:100B6800C982A9001600AF00C982A8007500370025
:100B78001600AE00C9A2A9001600AF00C9A2A800BD
:100B8800700037001600AE00C9C2A9001600AF00F9
:100B9800C9C2A8006B0037001600AE00C9E2A90060
:100BA8001600AF00C9E2A800660037001600AE00C4
:100BB800D002A9001600AF00D002A80061003700DB
:100BC8001600AE00D022A9001600AF00D022A8005F
:100BD8005C0037001600AE00D042A9001600AF0036
:100BE800D042A800570037001600AE00D062A90016
:100BF8001600AF00D062A800520037001600AE0001
:100C0800D082A9001600AF00D082A8004D0037009E
:100C18001600AE00D0A2A9001600AF00D0A2A8000E
:100C2800480037001600AE00D0C2A9001600AF0079
:100C3800D0C2A800430037001600AE00D0E2A900D9
:100C48001600AF00D0E2A8003E0037001600AE0044
:100C5800D102A9001600AF00D102A8003900370060
:100C68001600AE00D122A9001600AF00D122A800BC
:100C7800340037006054E1007CFF32006154E10029
:100C88007FFF32006254E10082FF32006354E100CA
:100C980085FF32006454E10088FF32006554E100AA
:100CA8008BFF32006654E1008EFF32006754E1008A
:100CB80091FF32006854E10094FF32006954E1006A
:100CC80097FF32006A54E1009AFF32006B54E1004A
:100CD8009DFF32006C54E100A0FF32006D54E1002A
:100CE800A3FF32006E54E100A6FF32006F54E1000A
:100CF800A9FF32007054E100ACFF32007154E100EA
:100D0800AFFF32007254E100B2FF32007354E100C9
:100D1800B5FF32007454E100B8FF32007554E100A9
:100D2800BBFF32007654E100BEFF32007754E10089
:100D3800C1FF32007854E100C4FF32007954E10069
:100D4800C7FF3200F00F20000080FA000000060004
:000D58009B
:100400000000FA002174200062042000730520001F
:10041000824878008348780042C7A8000080FA002C
:0404200000000600D2
:101A900001FE2F004074200010886000210020000B
:101AA00040742000108870006002200046A7B70034
:101AB000F1F32F0040742000108860003174200082
:101AC00030C0B30082072000A309200082487800BC
:101AD00083487800804878002174200010C0B3004B
:101AE0006204200073052000824878008348780053
:101AF0008048780000000000000000004287BF001E
:101B0000800078000000270080806000CC08DE00A4
:101B10006308E10001003200F8FF37000000060012
:001B2000C5
:1016C00000C2B300804078002011200090C0680064
:1016D00000C3B30080C060002011200090C06800EB
:1016E00020112000014878001221A90013E1A80070
:1016F000001120009040780000C3B30080C070004B
:1017000000112000014878001061A9001021A900F3
:1017100011E1A800201420009040780080CFB30091
:1017200080C06000201420000148780042E1A90038
:1017300000C2B300804078002014200090C06800F0
:1017400000C6B30080C060002014200090C0680074
:10175000201420000148780030C0B3008040780099
:101760002014200090C06800E7C060002014200012
:1017700090C06800201420000148780000C1B30028
:1017800080407800400A200090C0680000C7B30085
:1017900080C06000400A200090C06800400A20001D
:1017A000014878008420A9009420A800601420003B
:1017B0009040780080CFB30080C0600060142000AB
:1017C0000148780046E1A80000C2B30080407800DC
:1017D0006014200090C0680000C6B30080C06000A4
:1017E0006014200090C06800601420000148780058
:1017F00030C0B300804078006014200090C06800C2
:10180000E7C060006014200090C0680060142000F1
:101810000148780000C1B30080407800600A2000D1
:1018200090C0680000C7B30080C06000600A20005C
:1018300090C06800600A20000148780084A0A900D8
:1018400094A0A800A01520009040780080CFB3009D
:1018500080C06000A0152000014878005AE1A8006F
:1018600000C2B30080407800A015200090C068003E
:1018700000C6B30080C06000A015200090C06800C2
:10188000A01520000148780030C0B30080407800E7
:10189000A015200090C06800E7C06000A0152000DF
:1018A00090C06800A01520000148780000102000BA
:1018B00080007800E00A200090806800007020001E
:1018C00080806000E00A2000908068007105880038
:0C18D00086C0A90096C0A8000000060019
:1018DC008A1F78008B1F78008C1F78008D1F780072
:1018EC008420EF008620EF008820EF008A20EF0094
:1018FC008C20EF009860A8000C04A8000C24A80011
:10190C000020EF00504188000020EF00704188005B
:10191C000020EF0060418800500F200070418800CB
:10192C00100F2000504188000C0024001B002000E8
:10193C001420EF004DFE07000C0024001620EF00D1
:10194C002A00200049FE07003D0020003C0020003A
:10195C004B0020001A0020002A08F800100020007C
:10196C00801F780077FE07004F00B1000A012000AD
:10197C009FFD0700FA0F200068FD0700FB0F2000F9
:10198C004A002000F1FC07007D0F2000FBFF2F0018
:10199C00FCFF2F001420EF0005FE07007D0F200038
:1019AC00FBFF2F00FCFF2F001A00200000FE070099
:1019BC007D0F2000FBFF2F00FCFF2F002A002000D2
:1019CC00FBFD0700FB0F20001420EF00DFFC0700DD
:1019DC00CF0678004F067800CF0578004F057800C9
:0419EC0000000600F1
:101278000000FA006850E10002003900F0FF2F007A
:101288002F003700000024000000560000067800F8
:10129800600020000050B800C100DD0000382000C8
:1012A800010040000001780010F0A600020037009D
:1012B8001000200022003700E023EF001600E200B3
:1012C8000E0032000002220000097800E800410008
:1012D8002044200080087800EA00410070002000C7
:1012E80080087800E200410060042000800878004F
:1012F800640041000C0878000D003700000220004F
:1013080000097800E80041000044200080087800C7
:10131800EA0041007000200080087800E2004100E7
:101328002002200080087800640041000C08780042
:101338009200780000002800008970000020EF006B
:081348000080FA00000006001D
:101350000000FA008A1F78008B1F78004EB99700B2
:10136000BEB997003024EF003224EF003424EF00A0
:101370003624EF000164A8000184A80001A4A9009C
:101380000064A9008A9FBE00FB0F20004A002000D5
:1013900071FE07004F05BE00831F7800821F780092
:1013A00094FE07004F00B100FB0F20001420EF0057
:1013B00069FE0700CF0578004F0578000080FA002D
:0413C0000000060023
:100D58000000FA001600E200170032008A0078004E
:100D680080C0B3000000FB008008DD0000402000C8
:100D780090806800007020008080600000402000A3
:100D88009080680001208800004020001040780012
:100D98008040780000CEB30080C060000180FB0076
:100DA800C500DE000180FB000A00E10001003200FE
:100DB800F5FF37000B0037008A00780080C0B300C9
:100DC8000000FB008008DD000040200090806800E3
:100DD8000070200080806000004020009080680043
:0C0DE800012088000080FA0000000600D6
:100DF4000000FA00CEB897003EBA97006100550093
:100E04000005780061805500800578006100560077
:100E1400000678006180560080067800E182500068
:100E24008A41780060C0B3008380FB000001FB00AE
:100E34008209DD000041200090C1690000CCB300AC
:100E440080C161000041200090C169000041200080
:100E5400034878008B4078000041200090C068006F
:100E6400F0C3B30080C060000041200090C068005F
:100E7400004120000148780085407800204120008E
:100E840090C06800E7C060002041200090C0680066
:100E940020412000014878008C41780030C0B30024
:100EA4008380FB000001FB008209DD00204120005B
:100EB40090C1690080C3B30080C16100204120005B
:100EC40090C1690020412000034878008D0078001B
:100ED40080C0B3000000FB008008DD00204120003A
:100EE4009080680000702000808060002041200015
:100EF40090806800912088000840AF00010037000E
:100F040012C4A8000800AE000100370012E4A800D3
:100F14000820AE000100370013C4A8000080FA00C6
:040F240000000600C3
:100FFC000000FA000A4088004300370031208000CE
:10100C00F0FF21000080600006A4B7004E003700FE
:10101C000000220080007800604020009080680072
:10102C0000002E00808060006040200090806800EE
:10103C003120880044003700000024008000780034
:10104C00604020009080680000002E0080806000CE
:10105C006040200090806800312088003A00370002
:10106C00000026008000780060402000908068001E
:10107C0000002E008080600060402000908068009E
:10108C0031208800300037000000280080007800F4
:10109C00604020009080680000002E00808060007E
:1010AC0060402000908068003120880026003700C6
:1010BC0000002A00800078006040200090806800CA
:1010CC0000002E008080600060402000908068004E
:1010DC00312088001C00370000002C0080007800B4
:1010EC00604020009080680000002E00808060002E
:1010FC00604020009080680031208800120037008A
:10110C00F0FF2F00110037006450E100BBFF3200EC
:10111C006650E100BEFF32006850E100C6FF3200AD
:10112C006C50E100CEFF32007050E100D6FF32006F
:10113C007850E100DEFF3200000220000050E10098
:10114C00E5FF3200EEFF37000020EF000080FA00D0
:04115C000000060089
:100F28000000FA000420EF000004AF000420EC00E9
:100F38000004A900F1F72700004320001088600092
:100F4800F1F727002043200010886000F1F7270000
:100F58004043200010886000F1F72700604320001C
:100F680010886000F00F20000050E10002003600F9
:100F7800F0FF2F001D0037001400AE0001003700FD
:100F880030E4A8001420AE000100370031E4A800C6
:100F98001440AE000100370032E4A8001460AE002F
:100FA8000100370033E4A8001480AE0001003700C8
:100FB80034E4A80014A0AE000100370035E4A8000E
:100FC80014C0AE000100370036E4A80014E0AE00FB
:100FD8000100370037E4A8000400AE000004A900AF
:100FE8000400AF000004A8000020EF000080FA0011
:040FF80000000600EF
:1011BC000000FA008A1F78008D1F78004150DD0076
:1011CC00C100DD0000432000010040008D1F7800AD
:1011DC001A20EF00000578008FFC07002F00B100EB
:1011EC00CF0678004F0578000080FA00000006005A
:0011FC00F3
:100424000000FA00CEB897000820EF000004AF00E7
:100434000820EC000004A800690037000260AE0048
:10044400060037004558DD00000D78009A0078005A
:1004540070FF2F00008D6000100037006201200043
:100464006200410090007800C0FF2100008060001D
:10047400C300DD00620041001000780063006000EA
:10048400008D70001A00780068007000000D78007C
:1004940062004500000578000B087800040078002D
:1004A4005600370002A0AE00190037000260AE000B
:1004B400060037004558DD00000D78001A0078006A
:1004C40068007000000D7800100037006201200001
:1004D4006200410090007800C0FF210000806000AD
:1004E400C300DD006200410010007800630060007A
:1004F400008D70001A00780068007000000D78000C
:1005040062004500000578000B08780010003700F1
:10051400620120006200410090007800C0FF2100C9
:1005240000806000C300DD0062004100100078001C
:1005340063006000008D70009A00780070FF2F0047
:10054400008D600062004500000578000B0878000B
:1005540004007800290037000260AE000300370071
:100564004258DD00000D78001B00370063012000B5
:100574006280410090007800C0FF2300008D60007D
:100584001A00780061007000000D780062014500D7
:10059400020578006280410010007800630060006A
:1005A400CA00DD0000FC2F00008065004600DE006C
:1005B40000897000E200450001057800F003200086
:1005C400008065004A00DD00800878009A00780009
:1005D400F0EE2F00008D6000040078000700370063
:1005E4006168E10095FF32006068E100ADFF320010
:1005F4006268E100D8FF3200040078000000AE0019
:100604000004A9000000AF000004A8000080FA0064
:0406140000000600DC
:1019F0000400FA0000C4290001002000000798003C
:101A0000110798000E0090009E0090000A017800D7
:101A10008001EB00D2FD0700000798001107980035
:101A20005209200003002000E0004700600047004A
:101A300031181100219019000E009000600047003D
:101A400000A0EC0090007800F2FF2300820160000B
:101A5000E20020000201E900030035008100D1000E
:101A60000080D300FBFF37000000E20004003200DA
:101A7000F93F0900000000000000E900FAFF37000C
:101A800003800900000000000080FA00000006004A
:001A900056
:101160000000FA00020AB800500088000200B8002F
:1011700081004200032AB800810042000080FA008A
:041180000000060065
:1013C4000000FA006EFF07008BFF07000080FA00A0
:0413D400000006000F
:101184000000FA00E08F200010408800000E2000CC
:1011940020A3B7002143A9002223EF00F0F321008C
:1011A40024A3B7003223EF003023EF0021E3A8008B
:0811B4000080FA0000000600B3
:1011FC000000FA00100020000A00DD008080EA00E8
:10120C00C0322000108860004A1988002023A800F2
:10121C002003AF0001003700FDFF37002003A900B9
:0C122C000083BF000080FA0000000600F4
:1013D8000000FA008A1F78008B1F78004EBB970028
:1013E8000A20EF000004AF000A20EC000004A90066
:1013F8000E20EF006838E100120031004138DE00AD
:10140800C100DD000043200001004000900078008A
:101418001070A600030037000260AF00010037001B
:101428000800370003E0AE00040037000360AF0097
:10143800020037000E20EC00020037000EA0EC007E
:10144800ECFF37006838E100020039000020EF00A7
:10145800570037000C60AF000E003700C438DD00BD
:1014680000002400010040008C9FBE002D002000D9
:101478000B0678008A05780000057800700F2000B8
:10148800801F7800E5FB07002F00B1004F06BE0063
:101498000D003700C438DD000000240001004000C2
:1014A8008C9FBE002D0020000B0678008A0578006E
:1014B80000057800F00F2000801F7800D7FB070098
:1014C8002F00B1004F06BE00C438DD000000240024
:1014D80001004000640040001090A100C438DD0005
:1014E8000000240001004000640140006F80660095
:1014F80092407800014068006F40600000C06800BA
:10150800004978000CC0AF0005003700C438DD0082
:101518000000240001004000640040001090A0007A
:10152800C438DD000000240001004000E60040004F
:101538000C00780007000900B05878004138DE0038
:10154800C100DD0000432000010140000E00AE0094
:101558000A00370092007800F0CF2F000089600061
:10156800630063004800DD001209700092007800F3
:101578000080200000897000080037009200780081
:10158800C0FF2F000089600063006300120970002B
:101598001200780068007000000978000A00AE00A8
:1015A8000004A9000A00AF000004A800F0FF2F0003
:1015B800CF0578004F0578000080FA00000006008B
:0015C80023
:10228C003600F800801F7800200020000C000900A8
:10229C00B01F78008860A9000A04AE000200370065
:1022AC000A04A900C502A8000A24AE0001003700E8
:1022BC000A24A900A00120000C0009004F1078008E
:0C22CC004F0078003600F90000400600CA
:101C18003600F800801F7800200020000C00090022
:101C2800B01F78005881BF00204088005881BF004D
:101C38003040880086C0A9003140800040802000E4
:101C48001008E10005003600324080004180200085
:101C580060862000110851000600370071088000D6
:101C680040802000108150006180200060862000A4
:101C780011084100A00120000C0009004F10780055
:0C1C88004F0078003600F9000040060014
:101B20003600F800801F7800200020000C0009001B
:101B3000B01F78004481BF00204088004481BF006E
:101B40003040880084A0A9003140800040802000FF
:101B50001008E1000500360032408000418020007E
:101B600040862000110851000600370061088000FF
:101B700040802000108150006180200040862000BD
:101B800011084100A00120000C0009004F1078004E
:0C1B90004F0078003600F900004006000D
:101B9C003600F800801F7800200020000C0009009F
:101BAC00B01F78004081BF00204088004081BF00FA
:101BBC00304088008420A900314080004080200003
:101BCC001008E10005003600324080004180200002
:101BDC00A085200011085100060037007108800014
:101BEC00408020001081500061802000A0852000E2
:101BFC0011084100A00120000C0009004F107800D2
:0C1C0C004F0078003600F9000040060090
:0200000401F009
:20000000CF000000CF0000000700000082000000010000005F000000F7000000C1000000A1
:00000001FF
