:0A0000008528000000000000002920
:0C000A00831221088A00200882000800F0
:1000160083120313DB01DA01D9018030D800D10C39
:10002600D00C031C1F285408D90755080318550F70
:10003600DA070318DB0A0310D01F27285408DA074B
:1000460055080318550FDB07DB0CDA0CD90CD80C56
:10005600031C12285B08D3005A08D2005908D100A5
:060066005808D00008005C
:10006C0083120313D801D9011030DC00510DD80DC7
:10007C00D90D5408D8025508031C550FD902031882
:10008C004E285408D80755080318550FD9070310E4
:0A009C00D00DD10DDC0B3C2808004C
:1000A60005208A110A128000840AA00A0319A10AEF
:0800B600D003031D53280800CC
:1000BE0083122308D0002408D100CE30D4007F3024
:1000CE00D5000B200330D0070318D10AED30D40031
:1000DE007F30D50036205808D0005908D10050087E
:1000EE00A3005108A4003208D4003308D5003620EE
:0C00FE005808D0005908D100D00A0800B2
:10010A008312A8010130A9000430AA000530AB000F
:10011A002230AC002330AD002630AE000130AF00F3
:10012A008501183083168500383090001830960003
:10013A00C8308B002508003A031DE728B0010430B7
:10014A0030020318C8280630B2000030B3002F0866
:10015A00B400B5015F205008283E84000008D00092
:10016A005008B100500885000330DB000830DC007D
:10017A007730DD00DD0BBF28DC0BBF28DB0BBF2887
:10018A008501B00AA4280630B2000030B3002F0857
:10019A00B400B5015F205008283E84000008D00052
:1001AA005008B100500885000D30DB00AF30DC008C
:1001BA00B630DD00DD0BDF28DC0BDF28DB0BDF28A8
:1001CA00000085012208003A031DFD288312310828
:1001DA0085000B30DB002630DC005D30DD00DD0BF6
:1001EA00F428DC0BF428DB0BF4280000000085015E
:0601FA0063009F28FF28AE
:10020000DF00030E8301A6000A08A7008A010B1075
:100210000030051A0130A500003085190130A20018
:0E02200027088A00260E8300DF0E5F0E0900FD
:02400E00D431AB
:00000001FF
