:02000000EF29E6
:10000800FF00030E8301C7000A08C8008A010C1C00
:100018000E28A81448088A00470E8300FF0E7F0E9A
:020028000900CD
:0A002A000730FD00FD0B1728080049
:10003400831203139F01C0309F0483161F179F1759
:1000440083124908F000F00D7010F00D7010F00DDF
:10005400701070089F041F1415201F151F1D3428CD
:10006400000030281F101E08F100F00183161E083E
:08007400F0040030F104080063
:10007C0000000030831203132A06031D47280330A7
:10008C002906031D1F290230AD000030AE00051EED
:10009C005828071A5828A901AA010530AD000030CC
:1000AC00AE00080000303206031D5E280030310619
:1000BC00031D7428AF0A0319B00A3008003C031D55
:1000CC0069282F08FD3C03187328FD30AF00003061
:1000DC00B000B10A0319B20A080008000030320659
:1000EC00031D7A2801303106031D91280130AF021F
:1000FC00031CB00330082302031D86282F0822029C
:10010C00031C9028FD30AF000030B000B10A031979
:10011C00B20A080008003108F1003208F200B10AF6
:10012C000319B20A00307202031D9E2805307102B9
:10013C000318A12808003108F1003208F200B10AB6
:10014C000319B20A00307202031DAE280A30710284
:10015C000318B5282208AF002308B00008003108A6
:10016C00F1003208F200B10A0319B20A003072022F
:10017C00031DC2280F3071020318C928FD30AF00CF
:10018C000030B00008003108F1003208F200B10A6A
:10019C000319B20A00307202031DD6281430710202
:1001AC000318DD282208AF002308B000080031082E
:1001BC00F1003208F200B10A0319B20A00307202DF
:1001CC00031DEA28193071020318F128FD30AF0025
:1001DC000030B00008003108F1003208F200B10A1A
:1001EC000319B20A00307202031DFE281E30710280
:1001FC00031805292208AF002308B00008002208C4
:10020C00AF002308B000B101B201A00A0319A10A82
:10021C0000302106031D1429FF302006031D1E2962
:10022C00A901AA010330AD000030AE00A001A1016C
:10023C00080029082A0403193629A00A0319A10A5F
:10024C0000302106031D2C2960302006031D3629A1
:10025C000330AD000030AE00A001A101A901AA013C
:10026C0029082A04031D4229051A4229071A422982
:10027C000130A9000030AA0000302A06031D4829CD
:10028C0001302906031D5229051A5229071E52292D
:10029C000230A9000030AA0000302A06031D58299C
:1002AC0002302906031D6A29051A6A29071A6A29C8
:1002BC000330A9000030AA00B101B2012208AF003E
:1002CC002308B000A001A101071A8C29051A8C295A
:1002DC0000302506031D742900302406031D8B29CC
:1002EC000130A4000030A50030082306031D80292E
:1002FC0022082F06031D8729FD30AF000030B00007
:10030C008B292208AF002308B0008E29A401A50177
:10031C00051A9C29071E9C29281C9929FD30AF0021
:10032C000030B0009C29AF0A0319B00A051EAB2996
:10033C00071AAB29281CA7292208AF002308B000F4
:10034C00AB290130AF02031CB003281CD6293F088F
:10035C003302F1004008031C013E3402F200710824
:10036C00A6007208A7008030F00080307206700280
:10037C00031DC2297108003C0318C8290130AF02C3
:10038C00031CB00380302706F00080307002031D80
:10039C00D129003026020318D629AF0A0319B00A56
:1003AC003008003C031DDC292F08FD3C0318E22912
:1003BC00FD30AF000030B00023083002031DE829E7
:1003CC0022082F020318EE292208AF002308B000E0
:0203DC00080017
:1003DE008530831603138100831285018601870100
:1003EE00833083169F00FF308500FF30860030304B
:1003FE0087003130831290000C1080308F008E01F8
:10040E0083160C1458308312BF000230C000D03057
:10041E00AF00B0017030A2000030A300A901AA0104
:10042E00A001A101B101B2010330AD000030AE0058
:10043E00A401A5010130BD000030BE00C101C20102
:10044E000330C5000030C6000530C3000030C400C4
:10045E00A601A701B901BA01B501B601B701B801EC
:10046E000714C101C20100304202031D402A3C3074
:10047E00410203184D2A061C452A422A0618482A0C
:10048E00452A6400C10A0319C20A3A2A061C512AD7
:10049E0064004D2A2F08810003300102031C5B2AE1
:1004AE0006185B2A6400532A8714C0308B00C101E2
:1004BE00C2014108F1004208F200C10A0319C20A42
:1004CE002E087202031D6D2A2D0871020318FB2AD5
:1004DE00061C7D2A0530A2070318A30A061C782ADB
:1004EE00752A06187C2A6400782A8D2A0618812A15
:1004FE0064007D2A01082F02A2000030031C013E79
:10050E003002A3000230A2070318A30A00303E06F1
:10051E00031D932A01303D06031D9B2ABD01BE011A
:10052E002208AF002308B00023083002031DA12AC1
:10053E0022082F020318A72A2208AF002308B000B2
:10054E002F08810003300102031CB12A061CB12AB8
:10055E006400A92A07170000000000000000000038
:10056E00000000000713640007150618CA2A05309C
:10057E00A2070318A30A0618C52AC22A061CC92AEE
:10058E006400C52ADA2A061CCE2A6400CA2A01088B
:10059E002F02A2000030031C013E3002A3000230E5
:1005AE00A2070318A30A23083002031DE02A22081B
:1005BE002F020318E62A2208AF002308B0002F08E6
:1005CE00810003300102031CF02A0618F02A640091
:1005DE00E82A0717000000000000000000000000DD
:1005EE00000007136400602A0230C9001A20700848
:1005FE008312B3007108B4000430C9001A207008C9
:10060E008312BB007108BC0001307102031D112B57
:10061E00F4307002031C152B2814162B28103E20C4
:08062E00640087155E2A1A2BF7
:02400E004E2F33
:00000001FF
