:1000000091EF0DF0FFFFFFFF15C0E9FF16C0EAFFFB
:100010001750EF1684C3C9FFC7A0FED71850EF12C0
:10002000C9CF00F01200FF0E0301846F04EC00F052
:10003000400E03017B25846F04EC00F07FC384F342
:1000400004EC00F07EC384F304EC00F07DC384F381
:1000500004EC00F07CC384F304EC00F080C384F370
:1000600004EC00F0FF0E0301846F04EC00F000C00C
:1000700081F30301826B836B03018151000A17E056
:100080008151010A14E082C301F083C302F0824B64
:10009000832B4E0E025C02E1200E015C08E2FF0E93
:1000A0000301846F04EC00F000C081F3E5D781C345
:1000B00000F01200090E006E71C37CF372C37DF371
:1000C00073C37EF374C37FF3005008E003017C37F1
:1000D0007C917D377E377F37FF0FF7D7110E0301F5
:1000E0007B6FFF0E806F13EC00F0005203E0010EF7
:1000F000006E1200FF0E0301846F04EC00F000504C
:10010000FE0AF8E10301776B786B020E0301785D5C
:1001100002E1000E775D15E2030177517525796FD5
:10012000785176217A6FFF0E846F04EC00F079C36A
:10013000E1FF7AC3E2FF00C0E6FF0301774B782BB3
:10014000E4D7FF0E0301846F04EC00F0FF0E0301FF
:10015000846F04EC00F0006A1200090E006E71C397
:100160007CF372C37DF373C37EF374C37FF30050DB
:1001700008E003017C377C917D377E377F37FF0FA6
:10018000F7D7180E03017B6FFF0E806F13EC00F0A2
:10019000005203E0010E006E1200FF0E0301846F97
:1001A00004EC00F0FF0E0301846F04EC00F0FE0E7F
:1001B0000301846F04EC00F00301776B786B03019B
:1001C0007851010802E17751FF080FE303017751ED
:1001D0007525E96E78517621EA6EEECF84F304EC52
:1001E00000F00301774B782BEAD7FF0E0301846FF1
:1001F00004EC00F0FF0E0301846F04EC00F0FF0E2E
:100200000301846F04EC00F000C077F3000E0301DB
:10021000786F1F0E7715016E78C302F0000E02167C
:1002200001C077F302C078F3000E021802E1050E58
:10023000011803E0020E006E1200FF0E0301846F2E
:1002400004EC00F00050FF0AF8E1006A120000011F
:100250000B6A0A6A096A00500402F4CF09F0F3CF6E
:1002600008F001500502F4CF0BF0F3CF0AF0005074
:100270000502F3500926F4500A22E86A0B220150C5
:100280000402F3500926F4500A22E86A0B2208C03F
:1002900000F009C001F00AC002F00BC003F0120028
:1002A00000010B6A0A6A096A086A0E6A0334083692
:1002B0000450085E0550D8A0053C095E0650D8A041
:1002C000063C0A5E0750D8A0073C0B5EE86AD8A03F
:1002D000010E0E5E0336070E0C6E03340836093627
:1002E0000A360B360E36045003A08AEF01F0085E82
:1002F0000550D8A0053C095E0650D8A0063C0A5E11
:100300000750D8A0073C0B5EE86AD8A0010E0E5E2D
:100310009BEF01F008260550D8B0053C0926065091
:10032000D8B0063C0A260750D8B0073C0B26E86A2E
:10033000D8B0010E0E2603360C2E6DEF01F00234FC
:10034000083609360A360B360E36045003A0BCEFC9
:1003500001F0085E0550D8A0053C095E0650D8A003
:10036000063C0A5E0750D8A0073C0B5EE86AD8A09E
:10037000010E0E5ECDEF01F008260550D8B0053C09
:1003800009260650D8B0063C0A260750D8B0073CCC
:100390000B26E86AD8B0010E0E260236070E0C6E48
:1003A0000234083609360A360B360E36045002A0DF
:1003B000EDEF01F0085E0550D8A0053C095E06503F
:1003C000D8A0063C0A5E0750D8A0073C0B5EE86A3E
:1003D000D8A0010E0E5EFEEF01F008260550D8B041
:1003E000053C09260650D8B0063C0A260750D8B06E
:1003F000073C0B26E86AD8B0010E0E2602360C2EFA
:10040000D0EF01F00134083609360A360B360E36C5
:10041000045002A01FEF02F0085E0550D8A0053C72
:10042000095E0650D8A0063C0A5E0750D8A0073CDB
:100430000B5EE86AD8A0010E0E5E30EF02F00826CF
:100440000550D8B0053C09260650D8B0063C0A260F
:100450000750D8B0073C0B26E86AD8B0010E0E262C
:100460000136070E0C6E0134083609360A360B3693
:100470000E36045001A050EF02F0085E0550D8A0DF
:10048000053C095E0650D8A0063C0A5E0750D8A07D
:10049000073C0B5EE86AD8A0010E0E5E61EF02F029
:1004A00008260550D8B0053C09260650D8B0063CB1
:1004B0000A260750D8B0073C0B26E86AD8B0010ED0
:1004C0000E2601360C2E33EF02F0003408360936C2
:1004D0000A360B360E36045001A082EF02F0085E99
:1004E0000550D8A0053C095E0650D8A0063C0A5E1F
:1004F0000750D8A0073C0B5EE86AD8A0010E0E5E3C
:1005000093EF02F008260550D8B0053C09260650A6
:10051000D8B0063C0A260750D8B0073C0B26E86A3C
:10052000D8B0010E0E260036070E0C6E00340836C9
:1005300009360A360B360E36045000A0B3EF02F02F
:10054000085E0550D8A0053C095E0650D8A0063CC0
:100550000A5E0750D8A0073C0B5EE86AD8A0010EDF
:100560000E5EC4EF02F008260550D8B0053C0926FF
:100570000650D8B0063C0A260750D8B0073C0B26D8
:10058000E86AD8B0010E0E2600360C2E96EF02F067
:1005900000B0D9EF02F0045008260550D8B0053C51
:1005A00009260650D8B0063C0A260750D8B0073CAA
:1005B0000B2612000301706B196A1A6A040E1B6E77
:1005C000000E1C6E1DC071F31EC072F31FC073F3CA
:1005D00020C074F3210E756F000E766F5AEC00F098
:1005E0001C500201221902E121511B1817E11B6A5C
:1005F0001C6A194A1A2A19501D240301716F1A50D6
:100600001E20726F000E1F20736F000E2020746F6B
:10061000210E756F000E766F5AEC00F0210E1B2430
:10062000E96E000E1C20EA6EEECF02F00250000AC6
:1006300014E1010E1B24006E000E1C20016E210E21
:100640000024E96E000E0120EA6EEECF02F00250A7
:10065000000A03E1010E0301706F020E1B26000E5B
:100660001C2203017053BCE00301706B020E1B5E81
:10067000000E1C5A1200210E1B24E16E000E1C20DD
:10068000E26EFF0EE66E010E1B24006E000E1C20B3
:10069000016E210E0024E16E000E0120E26EFF0EBD
:1006A000E66E19501D240301716F1A501E20726FDF
:1006B000000E1F20736F000E2020746F210E756FC7
:1006C000000E766FADEC00F01950020123250301F6
:1006D000716F1A50020124210301726F000E020192
:1006E00025210301736F000E020126210301746F9F
:1006F000210E756F000E766FADEC00F0120019C080
:1007000000F01AC001F029C204F02AC205F027EC5B
:1007100001F01BC002F01CC003F003320232039E42
:10072000025000240201276F03500120286F12009D
:10073000020E0201275D006E000E2859016E2FC2C5
:1007400004F0000E056E27EC01F000C02BF201C092
:100750002CF2000E02012D6F2E6F30512B273151DC
:100760002C2332512D2333512E23120027C26CF338
:1007700028C26DF303016C376C916D37000E6E6FFC
:100780006F6F21C204F022C205F0000E066E076EE4
:100790006CC300F06DC301F06EC302F06FC303F0D1
:1007A00050EC01F000C019F001C01AF021C204F0B1
:1007B00022C205F0000E066E076E6CC300F06DC31A
:1007C00001F06EC302F06FC303F050EC01F008C0FB
:1007D00000F009C001F00AC002F00BC003F000C035
:1007E0001BF001C01CF012000201346B356B366B3C
:1007F000376BDAEC02F03BEC03F07FEC03F038C22D
:1008000071F339C272F33AC273F33BC274F3210E2F
:100810000301756F000E766F5AEC00F003016F6BE9
:1008200002013551221902E1215134191EE1020160
:10083000346B356B364B372B365138250301716FCE
:100840000201375139210301726F000E02013A2172
:100850000301736F000E02013B210301746F210E2F
:10086000756F000E766F5AEC00F0210E02013425F0
:10087000E96E000E3521EA6EEECF02F00250E50A75
:100880000BE0210E3425E96E000E3521EA6EEECF25
:1008900002F00250000A03E1010E03016F6F200E07
:1008A00002013427000E352303016F53B9E0030121
:1008B0006F51010AD8A48FD0200E0201345F000EC0
:1008C000355B03016E6B03016E510A081BE36E5129
:1008D00002013425006E000E3521016E210E002428
:1008E000E16E000E0120E26E03016E516C25E96E8F
:1008F000000E6D21EA6EEECF00F000C0E6FF0301AE
:100900006E2BE1D71C0E03016E6F03016E512008A0
:1009100011E36E5102013425006E000E3521016E87
:10092000210E0024E16E000E0120E26EE66A030152
:100930006E2BEBD71A0E02013425006E000E352106
:10094000016E210E0024E16E000E0120E26E27C22E
:10095000E6FF28C2E6FF0B0E3425006E000E35219F
:10096000016E210E0024E16E000E0120E26E200EC9
:10097000E66E0D0E03016E6F03016E51190811E34F
:100980006E5102013425006E000E3521016E210EDC
:100990000024E16E000E0120E26EE66A03016E2B78
:1009A000EBD70201365138250301716F020137512F
:1009B00039210301726F000E02013A210301736FA6
:1009C000000E02013B210301746F210E756F000EB2
:1009D000766FADEC00F098EC03F0120019C03CF219
:1009E0001AC03DF21BC03EF21CC03FF2DAEC02F02E
:1009F0003BEC03F07FEC03F002013C511D240301AA
:100A0000716F02013D511E200301726F000E1F2005
:100A1000736F000E2020746F210E756F000E766FBD
:100A20005AEC00F0210E02013E25E16E000E3F213E
:100A3000E26E27C2E6FF28C2E6FF3C511D240301F7
:100A4000716F02013D511E200301726F000E1F20C5
:100A5000736F000E2020746F210E756F000E766F7D
:100A6000ADEC00F002013C5123250301716F02013E
:100A70003D5124210301726F000E02012521030163
:100A8000736F000E020126210301746F210E756F32
:100A9000000E766FADEC00F098EC03F012001950E8
:100AA0001D240301716F1A501E20726F000E1F204B
:100AB000736F000E2020746F210E756F000E766F1D
:100AC0005AEC00F0210E1B24006E000E1C20016E5B
:100AD00000C0E9FF01C0EAFFEECF60F3000E0301A2
:100AE000616F626F636F000E616F626F636FEECF55
:100AF00061F319C03CF21AC03DF21BC03EF21CC0AB
:100B00003FF200C0E1FF01C0E2FF5FC3E6FF5FC349
:100B1000E6FF19501D24716F1A501E20726F000ECF
:100B20001F20736F000E2020746F210E756F000E52
:100B3000766FADEC00F01950020123250301716FAF
:100B40001A50020124210301726F000E02012521B7
:100B50000301736F000E020126210301746F210E41
:100B6000756F000E766FADEC00F0000E006E0301A5
:100B7000631908E10050621905E1FF0E611902E1F5
:100B80006051FF0AD8B4A5D060C368F361C369F3AC
:100B900062C36AF363C36BF3030168376891693713
:100BA0006A376B3768C360F369C361F36AC362F382
:100BB0006BC363F321C204F022C205F0000E066E7F
:100BC000076E68C300F069C301F06AC302F06BC32B
:100BD00003F050EC01F000C064F301C065F302C003
:100BE00066F303C067F364C319F065C31AF021C24A
:100BF00004F022C205F0000E066E076E68C300F016
:100C000069C301F06AC302F06BC303F050EC01F05A
:100C100008C000F009C001F00AC002F00BC003F0E8
:100C200000C01BF001C01CF0030164511D24716F52
:100C300065511E20726F000E1F20736F000E202062
:100C4000746F210E756F000E766F5AEC00F0210E56
:100C50001B24006E000E1C20016E00C0E9FF01C0C5
:100C6000EAFFEECF60F3EECF61F300C0E1FF01C019
:100C7000E2FFE66AE66A19501D240301716F1A50FB
:100C80001E20726F000E1F20736F000E2020746FE5
:100C9000210E756F000E766FADEC00F01950020159
:100CA00023250301716F1A50020124210301726F81
:100CB000000E020125210301736F000E020126219F
:100CC0000301746F210E756F000E766FADEC00F0AE
:100CD0004CD73CC219F03DC21AF03EC21BF03FC2D5
:100CE0001CF012000201346B356B366B376B38C267
:100CF00071F339C272F33AC273F33BC274F3210E3B
:100D00000301756F000E766F5AEC00F00301646BFF
:100D1000656B636B02013551221902E121513419CF
:100D20001EE10201346B356B364B372B36513825BB
:100D30000301716F0201375139210301726F000EF7
:100D400002013A210301736F000E02013B210301EE
:100D5000746F210E756F000E766F5AEC00F0030170
:100D6000636B626B030162510A081FE36251020167
:100D70003425006E000E3521016E210E0024E96E2F
:100D8000000E0120EA6EEECF03F0030162515F25F1
:100D9000E96E000E6021EA6EEECF02F003500218F9
:100DA000D8B4632B0301622BDDD70301644B652BA1
:100DB000200E02013427000E3523030163510B0A74
:100DC0000BE065510201411903E14051030164192F
:100DD00003E11E0E0301636F030163510A089AE2E7
:100DE000140E0301635D49E2200E0201345D006EC2
:100DF000000E3559016E00C034F201C035F21A0EF2
:100E00000026000E0122210E0024E96E000E0120B2
:100E1000EA6EEECF27F2EECF28F298EC03F01C0E2C
:100E20003425006E000E3521016E210E0024E96E7E
:100E3000000E0120EA6EEECF42F2EECF43F2EECF8B
:100E400044F2EECF45F2B6EC03F00E0E020134256B
:100E5000006E000E3521016E210E0024E96E000E99
:100E60000120EA6EEECF46F2EECF47F2EECF48F227
:100E7000EECF49F2010E006E12000301615309E04A
:100E80005FC36CF360C36DF3F4EC03F0010E006E0E
:100E90001200006A1200BC0E03015F5D006E070EB7
:100EA0006059016E00C05FF301C060F37F0E001453
:100EB0005F6F01C060F3000E60170F0E6115006ECA
:100EC00000C061F3005202E1010E616F0301625143
:100ED0001F0803E3010E625D03E2010E0301626F6E
:100EE000030163511708D8A0636B030164513B08E9
:100EF000D8A0646B030165513B08D8A0656B65C33E
:100F000005F00532059E05C065F3090E006E5FC34E
:100F100003F060C304F0005005E00336039004368C
:100F2000FF0FFAD703C048F204C049F2050E026E63
:100F300061C300F0000E016E025005E00036009023
:100F40000136FF0FFAD7035000120450011200C0FF
:100F500048F201C049F20301625100100201486FDA
:100F600001C049F2000E49130B0E006E63C303F07B
:100F7000000E046E005005E0033603900436FF0FA8
:100F8000FAD703C046F204C047F2050E026E64C3EE
:100F900000F0000E016E025005E0003600900136B0
:100FA000FF0FFAD7035000120450011200C046F29E
:100FB00001C047F2055000100201466F01C047F220
:100FC000000E4713120019501D240301716F1A50AF
:100FD0001E20726F000E1F20736F000E2020746F92
:100FE000210E756F000E766F5AEC00F0210E1B2457
:100FF000E96E000E1C20EA6EEECF5FF3000E0301D7
:10100000606F616F626F000E606F616F626FEECF35
:1010100060F3000E006E0301621908E100506119CF
:1010200005E1FF0E601902E15F51FF0A6EE05FC348
:1010300067F360C368F361C369F362C36AF30301D2
:1010400067376791683769376A3767C35FF368C383
:1010500060F369C361F36AC362F321C204F022C280
:1010600005F0000E066E076E67C300F068C301F05E
:1010700069C302F06AC303F050EC01F000C063F3EF
:1010800001C064F302C065F303C066F363C319F0E3
:1010900064C31AF021C204F022C205F0000E066EED
:1010A000076E67C300F068C301F069C302F06AC34A
:1010B00003F050EC01F008C000F009C001F00AC0D4
:1010C00002F00BC003F000C01BF001C01CF00301D4
:1010D00063511D24716F64511E20726F000E1F201A
:1010E000736F000E2020746F210E756F000E766FE7
:1010F0005AEC00F0210E1B24E96E000E1C20EA6E53
:10110000EECF5FF3EECF60F384D77FEC03F098EC83
:1011100003F021C200F022C201F02FC204F0000E41
:10112000056E27EC01F000C004F001C005F0000ED0
:10113000066E076E42C200F043C201F044C202F0E4
:1011400045C203F050EC01F008C000F009C001F006
:101150000AC002F00BC003F021C204F022C205F065
:10116000000E066E076E50EC01F000C04AF200500F
:1011700002012B27000E2C232D232E2321C204F045
:1011800022C205F0000E066E076E42C200F043C296
:1011900001F044C202F045C203F050EC01F008C077
:1011A00000F009C001F00AC002F00BC003F000C05B
:1011B0004BF201C04CF202C04DF203C04EF21200DD
:1011C0002BC271F32CC272F32DC273F32EC274F3CF
:1011D000210E0301756F000E766F5AEC00F00301CB
:1011E000636B646B03016251645D02E16151635D95
:1011F0005AE2210E02014B25E16E000E4C21E26EF7
:10120000030163515F25E96E64516021EA6EEECF00
:1012100000F000C0E6FF010E02014B27000E4C2338
:101220004D234E23000E006E4E1908E100504D195B
:1012300005E122514C1902E14B51211930E12BC239
:1012400071F32CC272F32DC273F32EC274F3210E0C
:101250000301756F000E766FADEC00F0010E020118
:101260002B27000E2C232D232E234B6B4C6B4D6B09
:101270004E6B4A2B4A512F1903E14A6BEEEC04F0F6
:101280002BC271F32CC272F32DC273F32EC274F30E
:10129000210E0301756F000E766F5AEC00F003010A
:1012A000634B642B9FD72BC271F32CC272F32DC2F8
:1012B00073F32EC274F3210E0301756F000E766F67
:1012C000ADEC00F0030163510201422703016451B8
:1012D00002014323000E44234523365138250301E0
:1012E000716F0201375139210301726F000E020143
:1012F0003A210301736F000E02013B210301746F59
:10130000210E756F000E766F5AEC00F00E0E020182
:101310003425006E000E3521016E210E0024E16E91
:10132000000E0120E26E46C2E6FF47C2E6FF48C259
:10133000E6FF49C2E6FF48C2E6FF49C2E6FFE66AA9
:10134000E66A46C2E6FF47C2E6FF48C2E6FF49C278
:10135000E6FF1C0E3425006E000E3521016E210EB5
:101360000024E16E000E0120E26E42C2E6FF43C29D
:10137000E6FF44C2E6FF45C2E6FF365138250301C9
:10138000716F0201375139210301726F000E0201A2
:101390003A210301736F000E02013B210301746FB8
:1013A000210E756F000E766FADEC00F012005DC37C
:1013B00000F0010E016E005004E001360190FF0FB5
:1013C000FBD701C018F0011C006E00C017F0090E19
:1013D00003015B25156E000E5C21166E15C0E9FF3A
:1013E00016C0EAFF0150EF12090E1524E96E0050F5
:1013F000EF165E6B0A0E03015E5D07E2FF0E846F5F
:1014000004EC00F003015E2BF5D703017B6B7C6BD2
:101410007D6B7E6B7F6B950E806F13EC00F0005040
:10142000010A03E0010E006E1200010E03017B6F42
:101430007C6B7D6B7E6B7F6BFF0E806F13EC00F01F
:101440000052F3E1006A12000201386B396B3A6B0B
:101450003B6B366B376B346B356B4B6B4C6B4D6B3F
:101460004E6B276B286B2B6B2C6B2D6B2E6B426B93
:10147000436B446B456B1D6A1E6A1F6A206A236BAF
:10148000246B256B266B4F6B506B516B526B196A3B
:101490001A6A3C6B3D6B1B6A1C6A3E6B3F6B216B8F
:1014A000226B296B2A6B536B546B556B566B406BDD
:1014B000416B306B316B326B336B2F6B4A6B576BFD
:1014C000586B596B5A6B5B6B5C6B486B496B466B2B
:1014D000476B12000001086A096A100E0C6E013495
:1014E000083609360450085E0550D8A0053C095E50
:1014F000D8B082EF0AF0045008260550D8B0053C59
:101500000926D890003601360C2E6FEF0AF0120033
:10151000FF0E03015F6F4FEC05F002014B6B4C6B4C
:101520004D6B4E6B426B436B446B456B4A6B7FEC70
:1015300003F098EC03F0365138250301716F020176
:10154000375139210301726F000E02013A21030164
:10155000736F000E02013B210301746F210E756F42
:10156000000E766F5AEC00F01C0E02013425006E5E
:10157000000E3521016E210E0024E16E000E0120C7
:10158000E26EE66AE66AE66AE66A365138250301E3
:10159000716F0201375139210301726F000E020190
:1015A0003A210301736F000E02013B210301746FA6
:1015B000210E756F000E766FADEC00F012005D0E1F
:1015C00003015F6F020E606F616B72EC06F0D70E65
:1015D00003015F6F070E606F090E616F150E626F7A
:1015E000636B646B656B4BEC07F0E3EC07F05BC37C
:1015F0005FF35CC360F35DC361F35EC362F3E0EC71
:1016000008F01200949A94969488C66A03013A519D
:10161000C6123C51C6123B51C7123C5305E03D5126
:10162000000AD8B4C78C04D003013D53D8A4C78C9A
:10163000C68A120003013E6B3AC35BF33BC35CF303
:101640003CC35DF3D7EC09F000C058F203013E2B18
:10165000005203E0320E3E5DEFE3320E03013E5DC9
:1016600003E3FF0E006E120024EC0AF059C271F37E
:101670005AC272F35BC273F35CC274F3210E0301AE
:10168000756F000E766F5AEC00F002011F51550A7B
:10169000D8A46CD02051AA0AD8A468D02150E90A55
:1016A00008E02150EB0A03E12350900A02E0006AAF
:1016B00002D0010E006E00524FE10101EB5306E132
:1016C000EC5304E1ED5302E1EE5309E0E7C159F2B6
:1016D000E8C15AF2E9C15BF2EAC15CF239D001011A
:1016E000FB5306E1FC5304E1FD5302E1FE5309E024
:1016F000F7C159F2F8C15AF2F9C15BF2FAC15CF2D2
:1017000027D002010B5306E10C5304E10D5302E113
:101710000E5309E007C259F208C25AF209C25BF23D
:101720000AC25CF215D002011B5306E11C5304E10E
:101730001D5302E11E5309E017C259F218C25AF2B2
:1017400019C25BF21AC25CF203D0010E006E1200E5
:10175000020103013D6B0AD0010E03013D6F010E32
:1017600002015927000E5A235B235C230201030167
:101770003E6B03013D5328E159C271F35AC272F323
:101780005BC273F35CC274F3210E756F000E766F4B
:101790005AEC00F002011F51550A06E12051AA0A35
:1017A00003E1010E03013D6F03013E2B010E020117
:1017B0005927000E5A235B235C2303013E51400A44
:1017C00002E1030E3D6FD5D703013D51030A02E14B
:1017D000010E3E6F010E0201595F000E5A5B5B5B0A
:1017E0005C5B03013D51010AD8A4E3D0080E046EEE
:1017F0002DC000F0000E016E045005E00036009090
:101800000136FF0FFAD72C5000100301476F01C0BB
:1018100048F3000E481347C321F248C322F22EC0FA
:101820002FF2080E046E30C000F0000E016E04505E
:1018300005E0003600900136FF0FFAD72F50001058
:101840000301456F01C046F3000E461345C353F232
:1018500046C354F231C057F2080E046E38C000F08F
:10186000000E016E045005E0003600900136FF0FB7
:10187000FAD7375000100301436F01C044F3000E44
:10188000441343C355F244C356F231C000F0000E76
:10189000016E43C304F044C305F027EC01F0000ED1
:1018A000026E036E0201595100265A5101225B510A
:1018B00002225C5103220301455100243F6F46512F
:1018C0000120406F000E0220416F000E0320426F86
:1018D0003FC338F240C339F241C33AF242C33BF24C
:1018E000080E046E33C000F0000E016E045005E0D7
:1018F000003600900136FF0FFAD732500012000E6A
:10190000011200C040F201C041F2050E046E045005
:1019100005E0003600900136FF0FFAD747C304F008
:1019200048C305F06AEC0AF0005003013F250201AC
:10193000306F0150030140210201316F000E03019D
:1019400041210201326F000E030142210201336F77
:101950000301455102015925006E03014651020160
:101960005A21016E000E5B21026E000E5C21036E97
:1019700000C01DF001C01EF002C01FF003C020F027
:101980000301435100240201236F0301445101204C
:101990000201246F000E0220256F000E0320266F27
:1019A00047C329F248C32AF22A3329332A9F030165
:1019B0003E6B3EC300F01200440E03013A6F650E09
:1019C0003B6F730E3C6F650E3D6F6E0E3E6F760E75
:1019D0003F6F6F0E406F6C0E416F760E426F690E57
:1019E000436F640E446F6F0E456F200E466F700E8E
:1019F000476F6F0E486F720E496F200E4A6F520E7E
:101A00004B6F650E4C6F6E0E4D6F610E4E6F6E0E0E
:101A10004F6F2E0E506F200E516F560E526F650E87
:101A2000536F720E546F3A0E556F300E566F2E0E66
:101A3000576F330E586F620E596F5A6B5D0E03016C
:101A40005F6F020E606F616B72EC06F00050010A6E
:101A500003E10201642BF2D75D0E03015F6F020EFA
:101A6000606F010E616F72EC06F088EC0AF03A0EBE
:101A700003015B6F030E5C6F200E5D6F000E5E6FE7
:101A8000DFEC0AF06A0E03015B6F020E5C6F020E60
:101A90005D6F000E5E6FDFEC0AF01200016A9EBA05
:101AA000012A01C000F01200AECF3AF3ABA202D07F
:101AB000AB98AB883AC300F01200470E02015D6F8D
:101AC000500E5E6F530E5F6F5F0E606F4C0E616F56
:101AD0004F0E626F470E636F300E646F2E0E656F90
:101AE000540E666F580E676F540E686F696B010E67
:101AF0000301366F000E376F000E346F000E356F26
:101B00000D0E02016A6F0A0E6B6F1200AC8A900E06
:101B1000AB6E948E949C9EAA03D0AECF3EF3FBD7BF
:101B200012005DEC0DF0816A080E936EFF0E8112BB
:101B3000010E03013A6F3B6B3C6B010E3D6F02ECF3
:101B40000BF0CF0EAF6EAC8486EC0DF0820E03016D
:101B50003A6F0F0E3B6F020E3C6F1AEC0BF0005009
:101B6000000A02E1FE0E8112820E03013A6F0F0E8F
:101B70003B6F020E3C6F1AEC0BF00052F5E18194C2
:101B8000DCEC0CF0026A81B6022A0250000AD8A4EA
:101B90007DD0FC0E81124EEC0DF00052FCE06C0E7C
:101BA00003013425386F020E3521396F54EC0DF0E6
:101BB00038C3E1FF39C3E2FF00C0E6FF02016C5108
:101BC000240A03E10301344B352B03013651345D04
:101BD000006E37513559016E6C0E0024E96E020E0D
:101BE0000120EA6EEECF02F002502A0A25E1364BC0
:101BF000372B000E371902E1040E36191DE16C0E69
:101C000003015B6F020E5C6F34C35DF335C35EF39B
:101C1000DFEC0AF06A0E03015B6F020E5C6F020ECE
:101C20005D6F000E5E6FDFEC0AF00301346B356B05
:101C3000010E366F000E376F050E0C6EFF0E0B6E29
:101C4000FF0E0A6E0C2E01D007D00B2E01D003D050
:101C50000A2EFED7FAD7F6D7150E0B6EFF0E0A6EB8
:101C60000B2E01D003D00A2EFED7FAD7330E0A6E00
:101C70000A2EFED7010E0A6E0A2EFED7026A81B620
:101C8000022A0250000AD8B47AD783D77BD7FFD76D
:101C900055AAFFFFFFFFFFFFFFFFFFFFFFFFFFFF53
:020000040030CA
:0E000000FFFAFFFEFFFFFBFFFFFFFFFFFFFF0A
:00000001FF
