:10000000AAEF05F00000000000EF00F00000000083
:0A0010000000000000000000F3D71C
:10001C003FC003F040C004F041C005F042C006F000
:10002C0043A62CD003C002F00232029E0232029E82
:10003C000232029E050E016E04C000F0015004E075
:10004C0000360090FF0FFBD73DC0E1FF3EC0E2FF42
:10005C0000500210E66E3D4A3E2A050E016E03C0AA
:10006C0000F0015004E000360090FF0FFBD73DC0BC
:10007C00E1FF3EC0E2FF00C0E6FF42D0050E006E7D
:10008C0005C002F0005004E00232029EFF0FFBD7C5
:10009C0006C000F00036009000360090003600904C
:1000AC003DC0E1FF3EC0E2FF00500210E66E3D4A4B
:1000BC003E2A05C000F00036009000360090003655
:1000CC000090E00E0016080E0010016E030E0514D1
:1000DC00006E3DC0E1FF3EC0E2FF00500110E66E35
:1000EC003D4A3E2A3DC0E1FF3EC0E2FF04C0E6FFB0
:1000FC003D4A3E2A3DC0E1FF3EC0E2FF03C0E6FFA1
:02010C001200DF
:0C010E000E0E0D6E0D2EFED7000012002C
:10011A0060D0000E3D6E0F0E3E6E37C03FF038C005
:10012A0040F039C041F03AC042F03BC043F071DFC1
:10013A0060D0040E3D6E0F0E3E6E37C03FF038C0E1
:10014A0040F039C041F03AC042F03BC043F061DFB1
:10015A0050D0080E3D6E0F0E3E6E37C03FF038C0CD
:10016A0040F039C041F03AC042F03BC043F051DFA1
:10017A0040D00C0E3D6E0F0E3E6E37C03FF038C0B9
:10018A0040F039C041F03AC042F03BC043F041DF91
:10019A0030D0100E3D6E0F0E3E6E37C03FF038C0A5
:1001AA0040F039C041F03AC042F03BC043F031DF81
:1001BA0020D0140E3D6E0F0E3E6E37C03FF038C091
:1001CA0040F039C041F03AC042F03BC043F021DF71
:1001DA0010D03650000A9DE03650010AAAE0365087
:1001EA00020AB7E03650030AC4E03650040AD1E0E6
:0401FA00E0D7120038
:1001FE00396A3A6A3B6A3C6A38A649D036C0E9FF8A
:10020E0037C0EAFFEECF02F0050E006E02C039F0E5
:10021E00000E3A6E3B6E3C6E005004E03932399E51
:10022E00FF0FFBD739C03AF0396A3B6A3C6A02C00D
:10023E0000F0003600900036009000360090000E60
:10024E003B6E3C6E00503912000E3A12000E3ABE52
:10025E00FF0E3B6E3C6E000E3B6E3C6E364A372AEE
:10026E0036C0E9FF37C0EAFFEECF02F0050E016E91
:10027E0002C000F0015004E00032009EFF0FFBD7D9
:10028E0000503912000E3A123B123C1272D036C098
:10029E00E9FF37C0EAFFEECF01F0050E006E01C098
:1002AE0004F0005004E004360490FF0FFBD736C074
:1002BE00E9FF37C0EAFFEECF01F0030E006E01C07A
:1002CE0039F0000E3A6E3B6E3C6E005004E039324F
:1002DE00399EFF0FFBD739C03AF0396A3B6A3C6A48
:1002EE00000E3B6E3C6E364A372A36C0E9FF37C0E9
:1002FE00EAFFEECF00F0030E0014036EE00E0014C2
:10030E00026E02C000F00032009E0032009E0032EB
:10031E00009E035000120450001200503912000EBD
:10032E003A123B123C123BC03CF03AC03BF039C093
:10033E003AF0396A364A372A36C0D9FF37C0DAFF63
:10034E00DE503912000E3A123B123C123BC03CF00A
:10035E003AC03BF039C03AF0396A364A372A36C0CD
:10036E00D9FF37C0DAFFDE503912000E3A123B12B7
:10037E003C1239C000F03AC001F03BC002F03CC064
:04038E0003F0120066
:1003920037520AE036C06FFFE00E6E14016E015054
:0E03A200361801E0F9D702D036C06FFF120006
:1003B00036063706380639063A06060E006E36C08F
:1003C00070FF005004E070367090FF0FFBD737507D
:1003D000701238C071FF713671907136719071363C
:1003E00071903A5071123BB401D0718C3BA001D096
:0E03F000718E39C072FF3BA201D0728C1200D8
:1003FE003650000A10E1180E3D6E0F0E3E6E37C0DD
:10040E003FF038C040F039C041F03AC042F03BC036
:10041E0043F0FDDD0FD01C0E3D6E0F0E3E6E37C04D
:10042E003FF038C040F039C041F03AC042F03BC016
:06043E0043F0EDDD1200A9
:100444002FC0E1FF30C0E2FFE66A60AE2BD0F10EB0
:100454006F16FF0E326EA49074AE0AD02FC0E9FF5F
:1004640030C0EAFF2FC0E1FF30C0E2FFE686749E91
:1004740060A417D0070E6014006E2FC0E9FF30C0CF
:10048400EAFF2FC0E1FF30C0E2FF0050EE122FC0A0
:10049400E9FF30C0EAFF2FC0E1FF30C0E2FF010EE8
:1004A400EE1635D00F0150AF30D0F10E6F160A0E94
:1004B4006F12326AA49274AC0AD02FC0E9FF30C024
:1004C400EAFF2FC0E1FF30C0E2FFE686749C070E0E
:1004D4005015006E2FC0E9FF30C0EAFF2FC0E1FFC6
:1004E40030C0E2FF0050EE122FC0E9FF30C0EAFF37
:1004F400020EEE5C09E22FC0E9FF30C0EAFF2FC014
:10050400E1FF30C0E2FFE68E02D0006A12000F0E57
:100514006514006E00C033F02DC0E1FF2EC0E2FF71
:1005240000C0E6FF65AC09D02FC0E9FF30C0EAFF88
:100534002FC0E1FF30C0E2FFE68C62A61DD02FC0C1
:10054400E9FF30C0EAFF2FC0E1FF30C0E2FFE68AD6
:10055400610E366E0F0E376EF70E386E4EDE29C002
:10056400E1FF2AC0E2FF00C0E6FF01C0E6FF02C0CF
:10057400E6FF03C0E6FF13D0610E366E0F0E376E32
:10058400FF0E386E3ADE29C0E1FF2AC0E2FF00C048
:10059400E6FF01C0E6FF02C0E6FF03C0E6FF316AE2
:1005A400660E346E0F0E356E3350315C10E23150EE
:1005B4002B24E16E000E2C20E26E31503424E96EBF
:1005C400000E3520EA6EEECFE6FF312AEDD7F10EAC
:1005D4006F16A4AE0AD02FC0E9FF30C0EAFF2FC0C7
:1005E400E1FF30C0E2FFE688A49E325202E0609E42
:0C05F40002D00F01509FFF0E006E12009D
:1006000093949386800E366EFF0E376EC2DE29C03D
:1006100036F02AC037F02BC038F02CC039F02DC08E
:100620003AF02EC03BF0C4DE600E2E14606E100E49
:100630002E14016E0150100A01E1608460CF50FF5A
:10064000366A376A386A396A3A6AF70E3B6ED7DE1D
:10065000010E366E376A386A396A3A6AF70E3B6EAF
:10066000CEDE600E2E14006E9F0E0010016E0FD0B5
:10067000F70E2F6EF70E306E11D0FF0E2F6EFF0E9D
:10068000306E0CD0FF0E2F6EF70E306E07D001507B
:10069000DF0AEEE00150BF0AF0E0F4D7366A376AAD
:1006A000386A396A3A6A2FC03BF037DD010E366E80
:1006B000376A386A396A3A6A2FC03BF02EDD020E7B
:1006C000366E376A386A396A3A6A30C03BF025DDDF
:1006D000030E366E376A386A396A3A6A30C03BF0C0
:1006E0001CDD040E366E376A386A396A3A6A30C0E1
:1006F0003BF013DD050E366E376A386A396A3A6A9E
:1007000030C03BF00ADD366AFF0E376E42DE120063
:10071000220E0C6E086A096A0A6A0B6A0C06D8B4C3
:100720001FD0D8900B320A3209320832033202321B
:1007300001320032D8A0F2D70C06D8B409D0045048
:1007400008260550092206500A2207500B22EAD734
:10075000045008260550092206500A2207500B2291
:02076000120085
:100762000B6A0A6A096A086A0E6A03340836045078
:10077200085E0550D8A0053C095E0650D8A0063C8C
:100782000A5E0750D8A0073C0B5EE86AD8A0010EAB
:100792000E5E0336070E0C6E0334083609360A362F
:1007A2000B360E36045003A012D0085E0550D8A0B6
:1007B200053C095E0650D8A0063C0A5E0750D8A048
:1007C200073C0B5EE86AD8A0010E0E5E11D0082627
:1007D2000550D8B0053C09260650D8B0063C0A267A
:1007E2000750D8B0073C0B26E86AD8B0010E0E2697
:1007F20003360C2ED1D70234083609360A360B36A8
:100802000E36045003A012D0085E0550D8A0053C55
:10081200095E0650D8A0063C0A5E0750D8A0073CE5
:100822000B5EE86AD8A0010E0E5E11D008260550B4
:10083200D8B0053C09260650D8B0063C0A26075017
:10084200D8B0073C0B26E86AD8B0010E0E26023655
:10085200070E0C6E0234083609360A360B360E368F
:10086200045002A012D0085E0550D8A0053C095ED3
:100872000650D8A0063C0A5E0750D8A0073C0B5E83
:10088200E86AD8A0010E0E5E11D008260550D8B035
:10089200053C09260650D8B0063C0A260750D8B0B7
:1008A200073C0B26E86AD8B0010E0E2602360C2E43
:1008B200D1D70134083609360A360B360E360450C3
:1008C20002A012D0085E0550D8A0053C095E065071
:1008D200D8A0063C0A5E0750D8A0073C0B5EE86A27
:1008E200D8A0010E0E5E11D008260550D8B0053CE6
:1008F20009260650D8B0063C0A260750D8B0073C55
:100902000B26E86AD8B0010E0E260136070E0C6ED1
:100912000134083609360A360B360E36045001A069
:1009220012D0085E0550D8A0053C095E0650D8A03A
:10093200063C0A5E0750D8A0073C0B5EE86AD8A0C6
:10094200010E0E5E11D008260550D8B0053C0926CE
:100952000650D8B0063C0A260750D8B0073C0B26F2
:10096200E86AD8B0010E0E2601360C2ED1D700341B
:10097200083609360A360B360E36045001A012D05C
:10098200085E0550D8A0053C095E0650D8A0063C7A
:100992000A5E0750D8A0073C0B5EE86AD8A0010E99
:1009A2000E5E11D008260550D8B0053C0926065027
:1009B200D8B0063C0A260750D8B0073C0B26E86A96
:1009C200D8B0010E0E260036070E0C6E0034083623
:1009D20009360A360B360E36045000A012D0085ED5
:1009E2000550D8A0053C095E0650D8A0063C0A5E18
:1009F2000750D8A0073C0B5EE86AD8A0010E0E5E35
:100A020011D008260550D8B0053C09260650D8B0AA
:100A1200063C0A260750D8B0073C0B26E86AD8B035
:100A2200010E0E2600360C2ED1D700B00ED0045087
:100A320008260550D8B0053C09260650D8B0063C19
:0C0A42000A260750D8B0073C0B26120013
:100A4E00C26A070EC012C08E29C000F00036009098
:100A5E00003600900050C212C28087EC00F0C282B5
:100A6E00C2A201D0FDD7C4CF01F0006AC35000125C
:080A7E00000E0112C2901200EB
:100A86000F0140B704D0F10E6F166F860FD030B746
:100A960005D0F10E6F16060E6F1208D020B704D0DF
:100AA600F10E6F166F8402D0006A1200030E301426
:100AB600606E30B611D0610E3D6E0F0E3E6E29C0CF
:100AC6003FF02AC040F02BC041F02CC042F0F70E98
:100AD600436E0EEC00F010D0610E3D6E0F0E3E6EB2
:100AE60029C03FF02AC040F02BC041F02CC042F094
:100AF600FF0E436E0EEC00F02FC065FF30BC01D038
:100B0600658C660E326E0F0E336E316A2F50315C75
:100B160010E231503224E16E000E3320E26E315085
:100B26002D24E96E000E2E20EA6EEECFE6FF312A66
:0E0B3600EDD76086F10E6F16FF0E006E1200F6
:100B44000900F5CFE6FF0006FBE10106F9E112001A
:100B5400FF0E926E0C0EC16E080E936E946A730EA5
:100B6400D36EFF0E256EFF0E266E276E286EF40ED2
:100B74001D6E206A010E296E010E2A6E060E2B6E62
:100B8400070E2C6E060E2D6ED30E2E6E37DD800EE4
:100B9400366EFF0E376EC9EC01F0366A25C037F0A9
:100BA40026C038F027C039F028C03AF0F70E3B6E63
:100BB40024DC010E366E25C037F026C038F027C07D
:100BC40039F028C03AF0F70E3B6E17DC040E366E8F
:100BD400E90E376E030E386E000E396E000E3A6E53
:100BE400F70E3B6E8DEC00F0366AFF0E376EC9ECE3
:100BF40001F01E6A210E296E000E2A6E150E2B6E50
:100C0400000E2C6E1F0E2D6E000E2E6E200E2F6EFB
:100C1400000E306E15DC00C01EF000B002D08B9CBC
:100C240001D08B8C2450000A08E12350000A05E10E
:100C34002250030A02E12150E90A44E11E5242E033
:100C4400296A03DF000E026E036E880E046E130E13
:100C5400056E000E066E076E59DD0A0E086E00C0A2
:100C640004F001C005F002C006F003C007F008500C
:100C740007E00732063205320432079EFF0FF8D729
:100C840004C000F005C001F006C002F007C003F084
:100C94000A0E046E000E056E066E076E60DD00C05F
:100CA40015F0E80E296E030E2A6E000E2B6E000E50
:100CB4002C6E150E2D6E000E2E6E010E2F6E1DC0A5
:080CC40030F0DFDE96D7FFD708
:020000040030CA
:0D000100081F1EFF8281FF0FC00FE00F409F
:00000001FF
